{
    "abi": [
        {
            "type": "constructor",
            "inputs": [
                {
                    "name": "brevisRequestAddress",
                    "type": "address",
                    "internalType": "address"
                },
                {
                    "name": "entropyAddress",
                    "type": "address",
                    "internalType": "address"
                },
                {
                    "name": "selfKisserAddress",
                    "type": "address",
                    "internalType": "address"
                },
                {
                    "name": "chronicleOracleAddress_ETH_USD",
                    "type": "address",
                    "internalType": "address"
                }
            ],
            "stateMutability": "nonpayable"
        },
        {
            "type": "receive",
            "stateMutability": "payable"
        },
        {
            "type": "function",
            "name": "_entropyCallback",
            "inputs": [
                {
                    "name": "sequence",
                    "type": "uint64",
                    "internalType": "uint64"
                },
                {
                    "name": "provider",
                    "type": "address",
                    "internalType": "address"
                },
                {
                    "name": "randomNumber",
                    "type": "bytes32",
                    "internalType": "bytes32"
                }
            ],
            "outputs": [],
            "stateMutability": "nonpayable"
        },
        {
            "type": "function",
            "name": "addBottle",
            "inputs": [
                {
                    "name": "name",
                    "type": "string",
                    "internalType": "string"
                },
                {
                    "name": "description",
                    "type": "string",
                    "internalType": "string"
                },
                {
                    "name": "year",
                    "type": "uint256",
                    "internalType": "uint256"
                },
                {
                    "name": "priceUSD",
                    "type": "uint256",
                    "internalType": "uint256"
                }
            ],
            "outputs": [
                {
                    "name": "",
                    "type": "uint256",
                    "internalType": "uint256"
                }
            ],
            "stateMutability": "nonpayable"
        },
        {
            "type": "function",
            "name": "alreadyBuy",
            "inputs": [
                {
                    "name": "",
                    "type": "address",
                    "internalType": "address"
                }
            ],
            "outputs": [
                {
                    "name": "",
                    "type": "bool",
                    "internalType": "bool"
                }
            ],
            "stateMutability": "view"
        },
        {
            "type": "function",
            "name": "applyBrevisOpResult",
            "inputs": [
                {
                    "name": "_proofId",
                    "type": "bytes32",
                    "internalType": "bytes32"
                },
                {
                    "name": "_nonce",
                    "type": "uint64",
                    "internalType": "uint64"
                },
                {
                    "name": "_appVkHash",
                    "type": "bytes32",
                    "internalType": "bytes32"
                },
                {
                    "name": "_appCommitHash",
                    "type": "bytes32",
                    "internalType": "bytes32"
                },
                {
                    "name": "_appCircuitOutput",
                    "type": "bytes",
                    "internalType": "bytes"
                }
            ],
            "outputs": [],
            "stateMutability": "nonpayable"
        },
        {
            "type": "function",
            "name": "applyBrevisOpResults",
            "inputs": [
                {
                    "name": "_proofIds",
                    "type": "bytes32[]",
                    "internalType": "bytes32[]"
                },
                {
                    "name": "_nonces",
                    "type": "uint64[]",
                    "internalType": "uint64[]"
                },
                {
                    "name": "_appVkHashes",
                    "type": "bytes32[]",
                    "internalType": "bytes32[]"
                },
                {
                    "name": "_appCommitHashes",
                    "type": "bytes32[]",
                    "internalType": "bytes32[]"
                },
                {
                    "name": "_appCircuitOutputs",
                    "type": "bytes[]",
                    "internalType": "bytes[]"
                }
            ],
            "outputs": [],
            "stateMutability": "nonpayable"
        },
        {
            "type": "function",
            "name": "approve",
            "inputs": [
                {
                    "name": "to",
                    "type": "address",
                    "internalType": "address"
                },
                {
                    "name": "tokenId",
                    "type": "uint256",
                    "internalType": "uint256"
                }
            ],
            "outputs": [],
            "stateMutability": "nonpayable"
        },
        {
            "type": "function",
            "name": "balanceOf",
            "inputs": [
                {
                    "name": "owner",
                    "type": "address",
                    "internalType": "address"
                }
            ],
            "outputs": [
                {
                    "name": "",
                    "type": "uint256",
                    "internalType": "uint256"
                }
            ],
            "stateMutability": "view"
        },
        {
            "type": "function",
            "name": "bottleData",
            "inputs": [
                {
                    "name": "",
                    "type": "uint256",
                    "internalType": "uint256"
                }
            ],
            "outputs": [
                {
                    "name": "name",
                    "type": "string",
                    "internalType": "string"
                },
                {
                    "name": "description",
                    "type": "string",
                    "internalType": "string"
                },
                {
                    "name": "year",
                    "type": "uint256",
                    "internalType": "uint256"
                },
                {
                    "name": "priceUSD",
                    "type": "uint256",
                    "internalType": "uint256"
                }
            ],
            "stateMutability": "view"
        },
        {
            "type": "function",
            "name": "brevisBatchCallback",
            "inputs": [
                {
                    "name": "_appVkHashes",
                    "type": "bytes32[]",
                    "internalType": "bytes32[]"
                },
                {
                    "name": "_appCircuitOutputs",
                    "type": "bytes[]",
                    "internalType": "bytes[]"
                }
            ],
            "outputs": [],
            "stateMutability": "nonpayable"
        },
        {
            "type": "function",
            "name": "brevisCallback",
            "inputs": [
                {
                    "name": "_appVkHash",
                    "type": "bytes32",
                    "internalType": "bytes32"
                },
                {
                    "name": "_appCircuitOutput",
                    "type": "bytes",
                    "internalType": "bytes"
                }
            ],
            "outputs": [],
            "stateMutability": "nonpayable"
        },
        {
            "type": "function",
            "name": "brevisOpConfig",
            "inputs": [],
            "outputs": [
                {
                    "name": "challengeWindow",
                    "type": "uint64",
                    "internalType": "uint64"
                },
                {
                    "name": "sigOption",
                    "type": "uint8",
                    "internalType": "uint8"
                }
            ],
            "stateMutability": "view"
        },
        {
            "type": "function",
            "name": "brevisRequest",
            "inputs": [],
            "outputs": [
                {
                    "name": "",
                    "type": "address",
                    "internalType": "address"
                }
            ],
            "stateMutability": "view"
        },
        {
            "type": "function",
            "name": "buyBottle",
            "inputs": [
                {
                    "name": "tokenId",
                    "type": "uint256",
                    "internalType": "uint256"
                }
            ],
            "outputs": [],
            "stateMutability": "payable"
        },
        {
            "type": "function",
            "name": "contestTimeStamp",
            "inputs": [
                {
                    "name": "",
                    "type": "uint256",
                    "internalType": "uint256"
                }
            ],
            "outputs": [
                {
                    "name": "",
                    "type": "uint256",
                    "internalType": "uint256"
                }
            ],
            "stateMutability": "view"
        },
        {
            "type": "function",
            "name": "createContest",
            "inputs": [
                {
                    "name": "name",
                    "type": "string",
                    "internalType": "string"
                },
                {
                    "name": "description",
                    "type": "string",
                    "internalType": "string"
                },
                {
                    "name": "year",
                    "type": "uint256",
                    "internalType": "uint256"
                },
                {
                    "name": "priceUSD",
                    "type": "uint256",
                    "internalType": "uint256"
                },
                {
                    "name": "dateEndContest",
                    "type": "uint256",
                    "internalType": "uint256"
                }
            ],
            "outputs": [
                {
                    "name": "",
                    "type": "uint256",
                    "internalType": "uint256"
                }
            ],
            "stateMutability": "nonpayable"
        },
        {
            "type": "function",
            "name": "endContest",
            "inputs": [
                {
                    "name": "tokenId",
                    "type": "uint256",
                    "internalType": "uint256"
                },
                {
                    "name": "userRandomNumber",
                    "type": "bytes32",
                    "internalType": "bytes32"
                }
            ],
            "outputs": [],
            "stateMutability": "payable"
        },
        {
            "type": "function",
            "name": "entropy",
            "inputs": [],
            "outputs": [
                {
                    "name": "",
                    "type": "address",
                    "internalType": "contract IEntropy"
                }
            ],
            "stateMutability": "view"
        },
        {
            "type": "function",
            "name": "forSell",
            "inputs": [
                {
                    "name": "",
                    "type": "uint256",
                    "internalType": "uint256"
                }
            ],
            "outputs": [
                {
                    "name": "",
                    "type": "bool",
                    "internalType": "bool"
                }
            ],
            "stateMutability": "view"
        },
        {
            "type": "function",
            "name": "getApproved",
            "inputs": [
                {
                    "name": "tokenId",
                    "type": "uint256",
                    "internalType": "uint256"
                }
            ],
            "outputs": [
                {
                    "name": "",
                    "type": "address",
                    "internalType": "address"
                }
            ],
            "stateMutability": "view"
        },
        {
            "type": "function",
            "name": "isApprovedForAll",
            "inputs": [
                {
                    "name": "owner",
                    "type": "address",
                    "internalType": "address"
                },
                {
                    "name": "operator",
                    "type": "address",
                    "internalType": "address"
                }
            ],
            "outputs": [
                {
                    "name": "",
                    "type": "bool",
                    "internalType": "bool"
                }
            ],
            "stateMutability": "view"
        },
        {
            "type": "function",
            "name": "listOfUserAddresses",
            "inputs": [
                {
                    "name": "",
                    "type": "uint256",
                    "internalType": "uint256"
                }
            ],
            "outputs": [
                {
                    "name": "",
                    "type": "address",
                    "internalType": "address"
                }
            ],
            "stateMutability": "view"
        },
        {
            "type": "function",
            "name": "name",
            "inputs": [],
            "outputs": [
                {
                    "name": "",
                    "type": "string",
                    "internalType": "string"
                }
            ],
            "stateMutability": "view"
        },
        {
            "type": "function",
            "name": "nextTokenId",
            "inputs": [],
            "outputs": [
                {
                    "name": "",
                    "type": "uint256",
                    "internalType": "uint256"
                }
            ],
            "stateMutability": "view"
        },
        {
            "type": "function",
            "name": "ownerOf",
            "inputs": [
                {
                    "name": "tokenId",
                    "type": "uint256",
                    "internalType": "uint256"
                }
            ],
            "outputs": [
                {
                    "name": "",
                    "type": "address",
                    "internalType": "address"
                }
            ],
            "stateMutability": "view"
        },
        {
            "type": "function",
            "name": "readUSDPriceFromETH",
            "inputs": [],
            "outputs": [
                {
                    "name": "val",
                    "type": "uint256",
                    "internalType": "uint256"
                }
            ],
            "stateMutability": "view"
        },
        {
            "type": "function",
            "name": "safeTransferFrom",
            "inputs": [
                {
                    "name": "from",
                    "type": "address",
                    "internalType": "address"
                },
                {
                    "name": "to",
                    "type": "address",
                    "internalType": "address"
                },
                {
                    "name": "tokenId",
                    "type": "uint256",
                    "internalType": "uint256"
                }
            ],
            "outputs": [],
            "stateMutability": "nonpayable"
        },
        {
            "type": "function",
            "name": "safeTransferFrom",
            "inputs": [
                {
                    "name": "from",
                    "type": "address",
                    "internalType": "address"
                },
                {
                    "name": "to",
                    "type": "address",
                    "internalType": "address"
                },
                {
                    "name": "tokenId",
                    "type": "uint256",
                    "internalType": "uint256"
                },
                {
                    "name": "data",
                    "type": "bytes",
                    "internalType": "bytes"
                }
            ],
            "outputs": [],
            "stateMutability": "nonpayable"
        },
        {
            "type": "function",
            "name": "selfKisser",
            "inputs": [],
            "outputs": [
                {
                    "name": "",
                    "type": "address",
                    "internalType": "contract ISelfKisser"
                }
            ],
            "stateMutability": "view"
        },
        {
            "type": "function",
            "name": "setApprovalForAll",
            "inputs": [
                {
                    "name": "operator",
                    "type": "address",
                    "internalType": "address"
                },
                {
                    "name": "approved",
                    "type": "bool",
                    "internalType": "bool"
                }
            ],
            "outputs": [],
            "stateMutability": "nonpayable"
        },
        {
            "type": "function",
            "name": "supportsInterface",
            "inputs": [
                {
                    "name": "interfaceId",
                    "type": "bytes4",
                    "internalType": "bytes4"
                }
            ],
            "outputs": [
                {
                    "name": "",
                    "type": "bool",
                    "internalType": "bool"
                }
            ],
            "stateMutability": "view"
        },
        {
            "type": "function",
            "name": "symbol",
            "inputs": [],
            "outputs": [
                {
                    "name": "",
                    "type": "string",
                    "internalType": "string"
                }
            ],
            "stateMutability": "view"
        },
        {
            "type": "function",
            "name": "tokenURI",
            "inputs": [
                {
                    "name": "tokenId",
                    "type": "uint256",
                    "internalType": "uint256"
                }
            ],
            "outputs": [
                {
                    "name": "",
                    "type": "string",
                    "internalType": "string"
                }
            ],
            "stateMutability": "view"
        },
        {
            "type": "function",
            "name": "transferFrom",
            "inputs": [
                {
                    "name": "from",
                    "type": "address",
                    "internalType": "address"
                },
                {
                    "name": "to",
                    "type": "address",
                    "internalType": "address"
                },
                {
                    "name": "tokenId",
                    "type": "uint256",
                    "internalType": "uint256"
                }
            ],
            "outputs": [],
            "stateMutability": "nonpayable"
        },
        {
            "type": "function",
            "name": "vkHash",
            "inputs": [],
            "outputs": [
                {
                    "name": "",
                    "type": "bytes32",
                    "internalType": "bytes32"
                }
            ],
            "stateMutability": "view"
        },
        {
            "type": "event",
            "name": "Approval",
            "inputs": [
                {
                    "name": "owner",
                    "type": "address",
                    "indexed": true,
                    "internalType": "address"
                },
                {
                    "name": "approved",
                    "type": "address",
                    "indexed": true,
                    "internalType": "address"
                },
                {
                    "name": "tokenId",
                    "type": "uint256",
                    "indexed": true,
                    "internalType": "uint256"
                }
            ],
            "anonymous": false
        },
        {
            "type": "event",
            "name": "ApprovalForAll",
            "inputs": [
                {
                    "name": "owner",
                    "type": "address",
                    "indexed": true,
                    "internalType": "address"
                },
                {
                    "name": "operator",
                    "type": "address",
                    "indexed": true,
                    "internalType": "address"
                },
                {
                    "name": "approved",
                    "type": "bool",
                    "indexed": false,
                    "internalType": "bool"
                }
            ],
            "anonymous": false
        },
        {
            "type": "event",
            "name": "BuyBottle",
            "inputs": [
                {
                    "name": "",
                    "type": "address",
                    "indexed": true,
                    "internalType": "address"
                },
                {
                    "name": "",
                    "type": "uint256",
                    "indexed": false,
                    "internalType": "uint256"
                }
            ],
            "anonymous": false
        },
        {
            "type": "event",
            "name": "ConsumerAttested",
            "inputs": [
                {
                    "name": "blockNum",
                    "type": "uint64",
                    "indexed": false,
                    "internalType": "uint64"
                },
                {
                    "name": "account",
                    "type": "address",
                    "indexed": false,
                    "internalType": "address"
                },
                {
                    "name": "count",
                    "type": "uint256",
                    "indexed": false,
                    "internalType": "uint256"
                }
            ],
            "anonymous": false
        },
        {
            "type": "event",
            "name": "ContestWinner",
            "inputs": [
                {
                    "name": "",
                    "type": "address",
                    "indexed": true,
                    "internalType": "address"
                },
                {
                    "name": "",
                    "type": "uint256",
                    "indexed": true,
                    "internalType": "uint256"
                }
            ],
            "anonymous": false
        },
        {
            "type": "event",
            "name": "CreatedBottle",
            "inputs": [
                {
                    "name": "creator",
                    "type": "address",
                    "indexed": true,
                    "internalType": "address"
                },
                {
                    "name": "name",
                    "type": "string",
                    "indexed": false,
                    "internalType": "string"
                }
            ],
            "anonymous": false
        },
        {
            "type": "event",
            "name": "Transfer",
            "inputs": [
                {
                    "name": "from",
                    "type": "address",
                    "indexed": true,
                    "internalType": "address"
                },
                {
                    "name": "to",
                    "type": "address",
                    "indexed": true,
                    "internalType": "address"
                },
                {
                    "name": "tokenId",
                    "type": "uint256",
                    "indexed": true,
                    "internalType": "uint256"
                }
            ],
            "anonymous": false
        },
        {
            "type": "error",
            "name": "ERC721IncorrectOwner",
            "inputs": [
                {
                    "name": "sender",
                    "type": "address",
                    "internalType": "address"
                },
                {
                    "name": "tokenId",
                    "type": "uint256",
                    "internalType": "uint256"
                },
                {
                    "name": "owner",
                    "type": "address",
                    "internalType": "address"
                }
            ]
        },
        {
            "type": "error",
            "name": "ERC721InsufficientApproval",
            "inputs": [
                {
                    "name": "operator",
                    "type": "address",
                    "internalType": "address"
                },
                {
                    "name": "tokenId",
                    "type": "uint256",
                    "internalType": "uint256"
                }
            ]
        },
        {
            "type": "error",
            "name": "ERC721InvalidApprover",
            "inputs": [
                {
                    "name": "approver",
                    "type": "address",
                    "internalType": "address"
                }
            ]
        },
        {
            "type": "error",
            "name": "ERC721InvalidOperator",
            "inputs": [
                {
                    "name": "operator",
                    "type": "address",
                    "internalType": "address"
                }
            ]
        },
        {
            "type": "error",
            "name": "ERC721InvalidOwner",
            "inputs": [
                {
                    "name": "owner",
                    "type": "address",
                    "internalType": "address"
                }
            ]
        },
        {
            "type": "error",
            "name": "ERC721InvalidReceiver",
            "inputs": [
                {
                    "name": "receiver",
                    "type": "address",
                    "internalType": "address"
                }
            ]
        },
        {
            "type": "error",
            "name": "ERC721InvalidSender",
            "inputs": [
                {
                    "name": "sender",
                    "type": "address",
                    "internalType": "address"
                }
            ]
        },
        {
            "type": "error",
            "name": "ERC721NonexistentToken",
            "inputs": [
                {
                    "name": "tokenId",
                    "type": "uint256",
                    "internalType": "uint256"
                }
            ]
        }
    ],
    "bytecode": {
        "object": "0x60c06040526001600160401b03608052600160a052600780546001600160481b0319166001600160411b0317905534801561003957600080fd5b506040516130f73803806130f7833981016040819052610058916101b5565b8181856040518060400160405280600a81526020016957696e65426f74746c6560b01b8152506040518060400160405280600481526020016315d0951360e21b81525081600090816100aa91906102a8565b5060016100b782826102a8565b5050600680546001600160a01b03199081166001600160a01b03948516179091556008805482168685169081179091556009805490921693851693841790915560405163c529a67960e01b815260048101939093529163c529a6799150602401600060405180830381600087803b15801561013157600080fd5b505af1158015610145573d6000803e3d6000fd5b5050600a80546001600160a01b0319166001600160a01b03989098169790971790965550507f1d3553d0192bfc1f5df1f574d8dcd6cd45cc5cdd21a06942eadcba5d84d74c2f601355506103669350505050565b80516001600160a01b03811681146101b057600080fd5b919050565b600080600080608085870312156101cb57600080fd5b6101d485610199565b93506101e260208601610199565b92506101f060408601610199565b91506101fe60608601610199565b905092959194509250565b634e487b7160e01b600052604160045260246000fd5b600181811c9082168061023357607f821691505b60208210810361025357634e487b7160e01b600052602260045260246000fd5b50919050565b601f8211156102a357806000526020600020601f840160051c810160208510156102805750805b601f840160051c820191505b818110156102a0576000815560010161028c565b50505b505050565b81516001600160401b038111156102c1576102c1610209565b6102d5816102cf845461021f565b84610259565b6020601f82116001811461030957600083156102f15750848201515b600019600385901b1c1916600184901b1784556102a0565b600084815260208120601f198516915b828110156103395787850151825560209485019460019092019101610319565b50848210156103575786840151600019600387901b60f8161c191681555b50505050600190811b01905550565b612d82806103756000396000f3fe6080604052600436106101fd5760003560e01c806352a5f1f81161010d578063a40c88e7116100a0578063c1bde0e11161006f578063c1bde0e1146105c1578063c87b56dd1461060e578063d709b0e91461062e578063e985e9c51461065e578063f95a408a1461067e57600080fd5b8063a40c88e71461055b578063b314fac21461056e578063b416ca6414610581578063b88d4fde146105a157600080fd5b806375794a3c116100dc57806375794a3c146104f057806379d6b6a21461050657806395d89b4114610526578063a22cb4651461053b57600080fd5b806352a5f1f8146104705780636352211e1461049057806370a08231146104b0578063718f6ccd146104d057600080fd5b8063267a97df1161019057806338931a311161015f57806338931a31146103da5780633bca02fc146103fa57806342842e0e1461041a57806347ce07cc1461043a5780634fe840f51461045a57600080fd5b8063267a97df1461034d578063280612d61461037a57806332f929fc1461039a57806334801657146103ba57600080fd5b806310dd371c116101cc57806310dd371c146102ba57806319fdbaef146102e857806323b872dd146102fd5780632593711a1461031d57600080fd5b806301ffc9a71461020957806306fdde031461023e578063081812fc14610260578063095ea7b31461029857600080fd5b3661020457005b600080fd5b34801561021557600080fd5b5061022961022436600461215c565b6106ae565b60405190151581526020015b60405180910390f35b34801561024a57600080fd5b50610253610700565b60405161023591906121c9565b34801561026c57600080fd5b5061028061027b3660046121dc565b610792565b6040516001600160a01b039091168152602001610235565b3480156102a457600080fd5b506102b86102b336600461220a565b6107bb565b005b3480156102c657600080fd5b506102da6102d53660046122e4565b6107ca565b604051908152602001610235565b3480156102f457600080fd5b506102da610808565b34801561030957600080fd5b506102b8610318366004612366565b61087b565b34801561032957600080fd5b506102296103383660046123a7565b600c6020526000908152604090205460ff1681565b34801561035957600080fd5b506102da6103683660046121dc565b60106020526000908152604090205481565b34801561038657600080fd5b506102806103953660046121dc565b61090b565b3480156103a657600080fd5b50600854610280906001600160a01b031681565b3480156103c657600080fd5b506102b86103d536600461240f565b610935565b3480156103e657600080fd5b50600654610280906001600160a01b031681565b34801561040657600080fd5b506102b8610415366004612515565b610b44565b34801561042657600080fd5b506102b8610435366004612366565b610bee565b34801561044657600080fd5b50600a54610280906001600160a01b031681565b34801561046657600080fd5b506102da60135481565b34801561047c57600080fd5b506102b861048b366004612599565b610c09565b34801561049c57600080fd5b506102806104ab3660046121dc565b610ce4565b3480156104bc57600080fd5b506102da6104cb3660046123a7565b610cef565b3480156104dc57600080fd5b506102b86104eb3660046125fa565b610d37565b3480156104fc57600080fd5b506102da600b5481565b34801561051257600080fd5b506102b861052136600461266c565b610eb5565b34801561053257600080fd5b50610253610f0b565b34801561054757600080fd5b506102b86105563660046126c5565b610f1a565b6102b86105693660046126fe565b610f25565b6102b861057c3660046121dc565b6111bb565b34801561058d57600080fd5b506102da61059c366004612720565b61140e565b3480156105ad57600080fd5b506102b86105bc366004612797565b6114f6565b3480156105cd57600080fd5b506007546105ed906001600160401b03811690600160401b900460ff1682565b604080516001600160401b03909316835260ff909116602083015201610235565b34801561061a57600080fd5b506102536106293660046121dc565b61150e565b34801561063a57600080fd5b5061064e6106493660046121dc565b611583565b6040516102359493929190612816565b34801561066a57600080fd5b5061022961067936600461284f565b6116bb565b34801561068a57600080fd5b506102296106993660046121dc565b600f6020526000908152604090205460ff1681565b60006001600160e01b031982166380ac58cd60e01b14806106df57506001600160e01b03198216635b5e139f60e01b145b806106fa57506301ffc9a760e01b6001600160e01b03198316145b92915050565b60606000805461070f9061287d565b80601f016020809104026020016040519081016040528092919081815260200182805461073b9061287d565b80156107885780601f1061075d57610100808354040283529160200191610788565b820191906000526020600020905b81548152906001019060200180831161076b57829003601f168201915b5050505050905090565b600061079d826116e9565b506000828152600460205260409020546001600160a01b03166106fa565b6107c6828233611722565b5050565b6000806107d98787878761140e565b6000818152600f60209081526040808320805460ff191690556010909152902084905591505095945050505050565b600954604080516315f789a960e21b815290516000926001600160a01b0316916357de26a49160048083019260209291908290030181865afa158015610852573d6000803e3d6000fd5b505050506040513d601f19601f8201168201806040525081019061087691906128b7565b905090565b6001600160a01b0382166108aa57604051633250574960e11b8152600060048201526024015b60405180910390fd5b60006108b783833361172f565b9050836001600160a01b0316816001600160a01b031614610905576040516364283d7b60e01b81526001600160a01b03808616600483015260248201849052821660448201526064016108a1565b50505050565b600d818154811061091b57600080fd5b6000918252602090912001546001600160a01b0316905081565b604080518082019091526007546001600160401b038116808352600160401b90910460ff16602090920182905260009182919091509150600660009054906101000a90046001600160a01b03166001600160a01b031663a90f4bd78d8d8d8d8b8b8f8f8b8b6040518b63ffffffff1660e01b81526004016109bf9a99989796959493929190612902565b602060405180830381865afa1580156109dc573d6000803e3d6000fd5b505050506040513d601f19601f82011682018060405250810190610a0091906129ac565b610a445760405162461bcd60e51b815260206004820152601560248201527464617461206e6f7420726561647920746f2075736560581b60448201526064016108a1565b60005b8b811015610b3557848482818110610a6157610a616129c9565b9050602002810190610a7391906129df565b604051610a81929190612a25565b6040518091039020878783818110610a9b57610a9b6129c9565b9050602002013514610ae85760405162461bcd60e51b81526020600482015260166024820152751a5b9d985b1a590818da5c98dd5a5d081bdd5d1c1d5d60521b60448201526064016108a1565b610b2d898983818110610afd57610afd6129c9565b90506020020135868684818110610b1657610b166129c9565b9050602002810190610b2891906129df565b505050565b600101610a47565b50505050505050505050505050565b6006546001600160a01b03163314610b8f5760405162461bcd60e51b815260206004820152600e60248201526d34b73b30b634b21031b0b63632b960911b60448201526064016108a1565b60005b83811015610be757610bdf858583818110610baf57610baf6129c9565b90506020020135848484818110610bc857610bc86129c9565b9050602002810190610bda91906129df565b611828565b600101610b92565b5050505050565b610b28838383604051806020016040528060008152506114f6565b6000610c1d600a546001600160a01b031690565b90506001600160a01b038116610c755760405162461bcd60e51b815260206004820152601760248201527f456e74726f70792061646472657373206e6f742073657400000000000000000060448201526064016108a1565b336001600160a01b03821614610cd95760405162461bcd60e51b815260206004820152602360248201527f4f6e6c7920456e74726f70792063616e2063616c6c20746869732066756e637460448201526234b7b760e91b60648201526084016108a1565b610905848484611a0e565b60006106fa826116e9565b60006001600160a01b038216610d1b576040516322718ad960e21b8152600060048201526024016108a1565b506001600160a01b031660009081526003602052604090205490565b604080518082019091526007546001600160401b038116808352600160401b90910460ff16602090920182905260009182919060065460405163054eee2f60e41b8152600481018c90526001600160401b038b16602482015260448101899052606481018a90526084810184905260ff831660a48201529294509092506001600160a01b0316906354eee2f09060c401602060405180830381865afa158015610de4573d6000803e3d6000fd5b505050506040513d601f19601f82011682018060405250810190610e0891906129ac565b610e4c5760405162461bcd60e51b815260206004820152601560248201527464617461206e6f7420726561647920746f2075736560581b60448201526064016108a1565b8383604051610e5c929190612a25565b60405180910390208514610eab5760405162461bcd60e51b81526020600482015260166024820152751a5b9d985b1a590818da5c98dd5a5d081bdd5d1c1d5d60521b60448201526064016108a1565b5050505050505050565b6006546001600160a01b03163314610f005760405162461bcd60e51b815260206004820152600e60248201526d34b73b30b634b21031b0b63632b960911b60448201526064016108a1565b610b28838383611828565b60606001805461070f9061287d565b6107c6338383611ac3565b600082815260106020526040902054610f705760405162461bcd60e51b815260206004820152600d60248201526c139bdd08184818dbdb9d195cdd609a1b60448201526064016108a1565b6000828152601060205260409020544211610fc45760405162461bcd60e51b815260206004820152601460248201527310dbdb9d195cdd081b9bdd08199a5b9a5cda195960621b60448201526064016108a1565b600a54604080516320bba64360e21b815290516000926001600160a01b03169163b88c91489183916382ee990c9160048083019260209291908290030181865afa158015611016573d6000803e3d6000fd5b505050506040513d601f19601f8201168201806040525081019061103a9190612a35565b6040516001600160e01b031960e084901b1681526001600160a01b039091166004820152602401602060405180830381865afa15801561107e573d6000803e3d6000fd5b505050506040513d601f19601f820116820180604052508101906110a29190612a52565b600a54604080516320bba64360e21b815290516001600160801b039390931693506000926001600160a01b03909216916319cb825f91859184916382ee990c9160048083019260209291908290030181865afa158015611106573d6000803e3d6000fd5b505050506040513d601f19601f8201168201806040525081019061112a9190612a35565b6040516001600160e01b031960e085901b1681526001600160a01b0390911660048201526024810187905260440160206040518083038185885af1158015611176573d6000803e3d6000fd5b50505050506040513d601f19601f8201168201806040525081019061119b9190612a7b565b6001600160401b0316600090815260116020526040902093909355505050565b6000818152600f602052604090205460ff166112085760405162461bcd60e51b815260206004820152600c60248201526b1393d517d193d497d4d1531360a21b60448201526064016108a1565b6000818152600f60209081526040808320805460ff19169055338352600c90915290205460ff1661128e57600d805460018181019092557fd7b6990105719101dabeb77144f2a3385c8033acd3af97e9423a695e81ad1eb50180546001600160a01b031916339081179091556000908152600c60205260409020805460ff191690911790555b6000611298610808565b90506000670de0b6b3a76400006112af8334612aae565b6112b99190612adb565b905060006112cf670de0b6b3a764000083612adb565b6000858152600e602052604090206003015490915081101561133f5760405162461bcd60e51b815260206004820152602360248201527f4e6f7420656e6f756768207765692066726f6d207573646320636f6e7665727360448201526234b7b760e91b60648201526084016108a1565b6040516000908190309034908381818185875af1925050503d8060008114611383576040519150601f19603f3d011682016040523d82523d6000602084013e611388565b606091505b5091509150816113d15760405162461bcd60e51b81526020600482015260146024820152732330b4b632b2103a379039b2b7321022ba3432b960611b60448201526064016108a1565b60405186815233907f822cd8cda2d2b3feb2339ab2e79a3b336b792f0a912867901e963e928afd3be89060200160405180910390a2505050505050565b600b80546000918291908261142283612aef565b9190505590506114323382611b62565b604080516080810182528781526020808201889052818301879052606082018690526000848152600e90915291909120815181906114709082612b4f565b50602082015160018201906114859082612b4f565b5060408281015160028301556060909201516003909101556000828152600f602052819020805460ff191660011790555133907fe255251eed8f30a14a47cb9a84df853efd269d8c7f126beea3903a53af743cc1906114e59089906121c9565b60405180910390a295945050505050565b61150184848461087b565b6109053385858585611bc7565b6060611519826116e9565b50600061153160408051602081019091526000815290565b90506000815111611551576040518060200160405280600081525061157c565b8061155b84611cf1565b60405160200161156c929190612c0d565b6040516020818303038152906040525b9392505050565b600e6020526000908152604090208054819061159e9061287d565b80601f01602080910402602001604051908101604052809291908181526020018280546115ca9061287d565b80156116175780601f106115ec57610100808354040283529160200191611617565b820191906000526020600020905b8154815290600101906020018083116115fa57829003601f168201915b50505050509080600101805461162c9061287d565b80601f01602080910402602001604051908101604052809291908181526020018280546116589061287d565b80156116a55780601f1061167a576101008083540402835291602001916116a5565b820191906000526020600020905b81548152906001019060200180831161168857829003601f168201915b5050505050908060020154908060030154905084565b6001600160a01b03918216600090815260056020908152604080832093909416825291909152205460ff1690565b6000818152600260205260408120546001600160a01b0316806106fa57604051637e27328960e01b8152600481018490526024016108a1565b610b288383836001611d83565b6000828152600260205260408120546001600160a01b039081169083161561175c5761175c818486611e89565b6001600160a01b0381161561179a57611779600085600080611d83565b6001600160a01b038116600090815260036020526040902080546000190190555b6001600160a01b038516156117c9576001600160a01b0385166000908152600360205260409020805460010190555b60008481526002602052604080822080546001600160a01b0319166001600160a01b0389811691821790925591518793918516917fddf252ad1be2c89b69c2b068fc378daa952ba7f163c4a11628f55a4df523b3ef91a4949350505050565b82601354146118665760405162461bcd60e51b815260206004820152600a602482015269696e76616c696420766b60b01b60448201526064016108a1565b60008060006118758585611eed565b33600090815260126020526040902054929550909350915060ff16156118cf5760405162461bcd60e51b815260206004820152600f60248201526e185b1c9958591e4818db185a5b5959608a1b60448201526064016108a1565b600b8054600091826118e083612aef565b9190505590506118f03382611b62565b336000908152601260209081526040808320805460ff19166001179055805160c081018252600e608082018181526d2637bcb0b61031bab9ba37b6b2b960911b60a08401528252825180840184526015815274109bdd1d1b19481d1bc81899481c995919595b5959605a1b818601528285015281830185905260608201859052858552909252909120815181906119879082612b4f565b506020820151600182019061199c9082612b4f565b50604082810151600283015560609283015160039092019190915580516001600160401b03861681526001600160a01b03871660208201529081018490527fe0a439b16c1387ae3fd43b86fc44b58b8960957613b9de7b998f9059d142bb41910160405180910390a150505050505050565b6001600160401b038316600090815260116020526040812054600d54909190611a379084612c3c565b9050611a6b30600d8381548110611a5057611a506129c9565b6000918252602090912001546001600160a01b031684611f55565b81600d8281548110611a7f57611a7f6129c9565b60009182526020822001546040516001600160a01b03909116917f5eb916b81b980e51b8a3c54e722221c5c0087598d96e13bd35b7549e6232c54091a35050505050565b6001600160a01b038216611af557604051630b61174360e31b81526001600160a01b03831660048201526024016108a1565b6001600160a01b03838116600081815260056020908152604080832094871680845294825291829020805460ff191686151590811790915591519182527f17307eab39ab6107e8899845ad3d59bd9653f200f220920489ca2b5937696c31910160405180910390a3505050565b6001600160a01b038216611b8c57604051633250574960e11b8152600060048201526024016108a1565b6000611b9a8383600061172f565b90506001600160a01b03811615610b28576040516339e3563760e11b8152600060048201526024016108a1565b6001600160a01b0383163b15610be757604051630a85bd0160e11b81526001600160a01b0384169063150b7a0290611c09908890889087908790600401612c50565b6020604051808303816000875af1925050508015611c44575060408051601f3d908101601f19168201909252611c4191810190612c8d565b60015b611cad573d808015611c72576040519150601f19603f3d011682016040523d82523d6000602084013e611c77565b606091505b508051600003611ca557604051633250574960e11b81526001600160a01b03851660048201526024016108a1565b805181602001fd5b6001600160e01b03198116630a85bd0160e11b14611ce957604051633250574960e11b81526001600160a01b03851660048201526024016108a1565b505050505050565b60606000611cfe83612005565b60010190506000816001600160401b03811115611d1d57611d1d612236565b6040519080825280601f01601f191660200182016040528015611d47576020820181803683370190505b5090508181016020015b600019016f181899199a1a9b1b9c1cb0b131b232b360811b600a86061a8153600a8504945084611d5157509392505050565b8080611d9757506001600160a01b03821615155b15611e59576000611da7846116e9565b90506001600160a01b03831615801590611dd35750826001600160a01b0316816001600160a01b031614155b8015611de65750611de481846116bb565b155b15611e0f5760405163a9fbf51f60e01b81526001600160a01b03841660048201526024016108a1565b8115611e575783856001600160a01b0316826001600160a01b03167f8c5be1e5ebec7d5bd14f71427d1e84f3dd0314c0f7b2291e5b200ac8c7c3b92560405160405180910390a45b505b5050600090815260046020526040902080546001600160a01b0319166001600160a01b0392909216919091179055565b611e948383836120dd565b610b28576001600160a01b038316611ec257604051637e27328960e01b8152600481018290526024016108a1565b60405163177e802f60e01b81526001600160a01b0383166004820152602481018290526044016108a1565b6000808080611eff6020828789612caa565b611f0891612cd4565b60c01c90506000611f1d60286020888a612caa565b611f2691612cd4565b60c01c90506000611f3b60446028898b612caa565b611f4491612d0c565b60601c989197509195509350505050565b6001600160a01b038216611f7f57604051633250574960e11b8152600060048201526024016108a1565b6000611f8d8383600061172f565b90506001600160a01b038116611fb957604051637e27328960e01b8152600481018390526024016108a1565b836001600160a01b0316816001600160a01b031614610905576040516364283d7b60e01b81526001600160a01b03808616600483015260248201849052821660448201526064016108a1565b60008072184f03e93ff9f4daa797ed6e38ed64bf6a1f0160401b83106120445772184f03e93ff9f4daa797ed6e38ed64bf6a1f0160401b830492506040015b6d04ee2d6d415b85acef81000000008310612070576d04ee2d6d415b85acef8100000000830492506020015b662386f26fc10000831061208e57662386f26fc10000830492506010015b6305f5e10083106120a6576305f5e100830492506008015b61271083106120ba57612710830492506004015b606483106120cc576064830492506002015b600a83106106fa5760010192915050565b60006001600160a01b0383161580159061213b5750826001600160a01b0316846001600160a01b03161480612117575061211784846116bb565b8061213b57506000828152600460205260409020546001600160a01b038481169116145b949350505050565b6001600160e01b03198116811461215957600080fd5b50565b60006020828403121561216e57600080fd5b813561157c81612143565b60005b8381101561219457818101518382015260200161217c565b50506000910152565b600081518084526121b5816020860160208601612179565b601f01601f19169290920160200192915050565b60208152600061157c602083018461219d565b6000602082840312156121ee57600080fd5b5035919050565b6001600160a01b038116811461215957600080fd5b6000806040838503121561221d57600080fd5b8235612228816121f5565b946020939093013593505050565b634e487b7160e01b600052604160045260246000fd5b6000806001600160401b0384111561226657612266612236565b50604051601f19601f85018116603f011681018181106001600160401b038211171561229457612294612236565b6040528381529050808284018510156122ac57600080fd5b83836020830137600060208583010152509392505050565b600082601f8301126122d557600080fd5b61157c8383356020850161224c565b600080600080600060a086880312156122fc57600080fd5b85356001600160401b0381111561231257600080fd5b61231e888289016122c4565b95505060208601356001600160401b0381111561233a57600080fd5b612346888289016122c4565b959895975050505060408401359360608101359360809091013592509050565b60008060006060848603121561237b57600080fd5b8335612386816121f5565b92506020840135612396816121f5565b929592945050506040919091013590565b6000602082840312156123b957600080fd5b813561157c816121f5565b60008083601f8401126123d657600080fd5b5081356001600160401b038111156123ed57600080fd5b6020830191508360208260051b850101111561240857600080fd5b9250929050565b60008060008060008060008060008060a08b8d03121561242e57600080fd5b8a356001600160401b0381111561244457600080fd5b6124508d828e016123c4565b909b5099505060208b01356001600160401b0381111561246f57600080fd5b61247b8d828e016123c4565b90995097505060408b01356001600160401b0381111561249a57600080fd5b6124a68d828e016123c4565b90975095505060608b01356001600160401b038111156124c557600080fd5b6124d18d828e016123c4565b90955093505060808b01356001600160401b038111156124f057600080fd5b6124fc8d828e016123c4565b915080935050809150509295989b9194979a5092959850565b6000806000806040858703121561252b57600080fd5b84356001600160401b0381111561254157600080fd5b61254d878288016123c4565b90955093505060208501356001600160401b0381111561256c57600080fd5b612578878288016123c4565b95989497509550505050565b6001600160401b038116811461215957600080fd5b6000806000606084860312156125ae57600080fd5b833561238681612584565b60008083601f8401126125cb57600080fd5b5081356001600160401b038111156125e257600080fd5b60208301915083602082850101111561240857600080fd5b60008060008060008060a0878903121561261357600080fd5b86359550602087013561262581612584565b9450604087013593506060870135925060808701356001600160401b0381111561264e57600080fd5b61265a89828a016125b9565b979a9699509497509295939492505050565b60008060006040848603121561268157600080fd5b8335925060208401356001600160401b0381111561269e57600080fd5b6126aa868287016125b9565b9497909650939450505050565b801515811461215957600080fd5b600080604083850312156126d857600080fd5b82356126e3816121f5565b915060208301356126f3816126b7565b809150509250929050565b6000806040838503121561271157600080fd5b50508035926020909101359150565b6000806000806080858703121561273657600080fd5b84356001600160401b0381111561274c57600080fd5b612758878288016122c4565b94505060208501356001600160401b0381111561277457600080fd5b612780878288016122c4565b949794965050505060408301359260600135919050565b600080600080608085870312156127ad57600080fd5b84356127b8816121f5565b935060208501356127c8816121f5565b92506040850135915060608501356001600160401b038111156127ea57600080fd5b8501601f810187136127fb57600080fd5b61280a8782356020840161224c565b91505092959194509250565b608081526000612829608083018761219d565b828103602084015261283b818761219d565b604084019590955250506060015292915050565b6000806040838503121561286257600080fd5b823561286d816121f5565b915060208301356126f3816121f5565b600181811c9082168061289157607f821691505b6020821081036128b157634e487b7160e01b600052602260045260246000fd5b50919050565b6000602082840312156128c957600080fd5b5051919050565b81835260006001600160fb1b038311156128e957600080fd5b8260051b80836020870137939093016020019392505050565b60c08152600061291660c083018c8e6128d0565b8281036020808501919091528a82528b910160005b8b81101561295b57823561293e81612584565b6001600160401b031682526020928301929091019060010161292b565b50838103604085015261296f818a8c6128d0565b91505082810360608401526129858187896128d0565b91505083608083015261299d60a083018460ff169052565b9b9a5050505050505050505050565b6000602082840312156129be57600080fd5b815161157c816126b7565b634e487b7160e01b600052603260045260246000fd5b6000808335601e198436030181126129f657600080fd5b8301803591506001600160401b03821115612a1057600080fd5b60200191503681900382131561240857600080fd5b8183823760009101908152919050565b600060208284031215612a4757600080fd5b815161157c816121f5565b600060208284031215612a6457600080fd5b81516001600160801b038116811461157c57600080fd5b600060208284031215612a8d57600080fd5b815161157c81612584565b634e487b7160e01b600052601160045260246000fd5b80820281158282048414176106fa576106fa612a98565b634e487b7160e01b600052601260045260246000fd5b600082612aea57612aea612ac5565b500490565b600060018201612b0157612b01612a98565b5060010190565b601f821115610b2857806000526020600020601f840160051c81016020851015612b2f5750805b601f840160051c820191505b81811015610be75760008155600101612b3b565b81516001600160401b03811115612b6857612b68612236565b612b7c81612b76845461287d565b84612b08565b6020601f821160018114612bb05760008315612b985750848201515b600019600385901b1c1916600184901b178455610be7565b600084815260208120601f198516915b82811015612be05787850151825560209485019460019092019101612bc0565b5084821015612bfe5786840151600019600387901b60f8161c191681555b50505050600190811b01905550565b60008351612c1f818460208801612179565b835190830190612c33818360208801612179565b01949350505050565b600082612c4b57612c4b612ac5565b500690565b6001600160a01b0385811682528416602082015260408101839052608060608201819052600090612c839083018461219d565b9695505050505050565b600060208284031215612c9f57600080fd5b815161157c81612143565b60008085851115612cba57600080fd5b83861115612cc757600080fd5b5050820193919092039150565b80356001600160c01b03198116906008841015612d05576001600160c01b0319600885900360031b81901b82161691505b5092915050565b80356bffffffffffffffffffffffff198116906014841015612d05576bffffffffffffffffffffffff1960149490940360031b84901b169092169291505056fea26469706673582212209ec4874b92dd3d596ff1c00756f239a250a6d9a62ec6fd74cea19e2097f933af64736f6c634300081a0033",
        "linkReferences": {}
    },
    "methodIdentifiers": {
        "_entropyCallback(uint64,address,bytes32)": "52a5f1f8",
        "addBottle(string,string,uint256,uint256)": "b416ca64",
        "alreadyBuy(address)": "2593711a",
        "applyBrevisOpResult(bytes32,uint64,bytes32,bytes32,bytes)": "718f6ccd",
        "applyBrevisOpResults(bytes32[],uint64[],bytes32[],bytes32[],bytes[])": "34801657",
        "approve(address,uint256)": "095ea7b3",
        "balanceOf(address)": "70a08231",
        "bottleData(uint256)": "d709b0e9",
        "brevisBatchCallback(bytes32[],bytes[])": "3bca02fc",
        "brevisCallback(bytes32,bytes)": "79d6b6a2",
        "brevisOpConfig()": "c1bde0e1",
        "brevisRequest()": "38931a31",
        "buyBottle(uint256)": "b314fac2",
        "contestTimeStamp(uint256)": "267a97df",
        "createContest(string,string,uint256,uint256,uint256)": "10dd371c",
        "endContest(uint256,bytes32)": "a40c88e7",
        "entropy()": "47ce07cc",
        "forSell(uint256)": "f95a408a",
        "getApproved(uint256)": "081812fc",
        "isApprovedForAll(address,address)": "e985e9c5",
        "listOfUserAddresses(uint256)": "280612d6",
        "name()": "06fdde03",
        "nextTokenId()": "75794a3c",
        "ownerOf(uint256)": "6352211e",
        "readUSDPriceFromETH()": "19fdbaef",
        "safeTransferFrom(address,address,uint256)": "42842e0e",
        "safeTransferFrom(address,address,uint256,bytes)": "b88d4fde",
        "selfKisser()": "32f929fc",
        "setApprovalForAll(address,bool)": "a22cb465",
        "supportsInterface(bytes4)": "01ffc9a7",
        "symbol()": "95d89b41",
        "tokenURI(uint256)": "c87b56dd",
        "transferFrom(address,address,uint256)": "23b872dd",
        "vkHash()": "4fe840f5"
    },
    "id": 40
}