{"abi":[{"type":"constructor","inputs":[{"name":"entropyAddress","type":"address","internalType":"address"},{"name":"selfKisserAddress","type":"address","internalType":"address"},{"name":"chronicleOracleAddress_ETH_USD","type":"address","internalType":"address"}],"stateMutability":"nonpayable"},{"type":"receive","stateMutability":"payable"},{"type":"function","name":"_entropyCallback","inputs":[{"name":"sequence","type":"uint64","internalType":"uint64"},{"name":"provider","type":"address","internalType":"address"},{"name":"randomNumber","type":"bytes32","internalType":"bytes32"}],"outputs":[],"stateMutability":"nonpayable"},{"type":"function","name":"addBottle","inputs":[{"name":"name","type":"string","internalType":"string"},{"name":"description","type":"string","internalType":"string"},{"name":"year","type":"uint256","internalType":"uint256"},{"name":"priceUSD","type":"uint256","internalType":"uint256"}],"outputs":[{"name":"","type":"uint256","internalType":"uint256"}],"stateMutability":"nonpayable"},{"type":"function","name":"alreadyBuy","inputs":[{"name":"","type":"address","internalType":"address"}],"outputs":[{"name":"","type":"bool","internalType":"bool"}],"stateMutability":"view"},{"type":"function","name":"approve","inputs":[{"name":"to","type":"address","internalType":"address"},{"name":"tokenId","type":"uint256","internalType":"uint256"}],"outputs":[],"stateMutability":"nonpayable"},{"type":"function","name":"balanceOf","inputs":[{"name":"owner","type":"address","internalType":"address"}],"outputs":[{"name":"","type":"uint256","internalType":"uint256"}],"stateMutability":"view"},{"type":"function","name":"bottleData","inputs":[{"name":"","type":"uint256","internalType":"uint256"}],"outputs":[{"name":"name","type":"string","internalType":"string"},{"name":"description","type":"string","internalType":"string"},{"name":"year","type":"uint256","internalType":"uint256"},{"name":"priceUSD","type":"uint256","internalType":"uint256"}],"stateMutability":"view"},{"type":"function","name":"buyBottle","inputs":[{"name":"tokenId","type":"uint256","internalType":"uint256"}],"outputs":[],"stateMutability":"payable"},{"type":"function","name":"contestTimeStamp","inputs":[{"name":"","type":"uint256","internalType":"uint256"}],"outputs":[{"name":"","type":"uint256","internalType":"uint256"}],"stateMutability":"view"},{"type":"function","name":"createContest","inputs":[{"name":"name","type":"string","internalType":"string"},{"name":"description","type":"string","internalType":"string"},{"name":"year","type":"uint256","internalType":"uint256"},{"name":"priceUSD","type":"uint256","internalType":"uint256"},{"name":"dateEndContest","type":"uint256","internalType":"uint256"}],"outputs":[{"name":"","type":"uint256","internalType":"uint256"}],"stateMutability":"nonpayable"},{"type":"function","name":"endContest","inputs":[{"name":"tokenId","type":"uint256","internalType":"uint256"},{"name":"userRandomNumber","type":"bytes32","internalType":"bytes32"}],"outputs":[],"stateMutability":"payable"},{"type":"function","name":"entropy","inputs":[],"outputs":[{"name":"","type":"address","internalType":"contract IEntropy"}],"stateMutability":"view"},{"type":"function","name":"forSell","inputs":[{"name":"","type":"uint256","internalType":"uint256"}],"outputs":[{"name":"","type":"bool","internalType":"bool"}],"stateMutability":"view"},{"type":"function","name":"getApproved","inputs":[{"name":"tokenId","type":"uint256","internalType":"uint256"}],"outputs":[{"name":"","type":"address","internalType":"address"}],"stateMutability":"view"},{"type":"function","name":"isApprovedForAll","inputs":[{"name":"owner","type":"address","internalType":"address"},{"name":"operator","type":"address","internalType":"address"}],"outputs":[{"name":"","type":"bool","internalType":"bool"}],"stateMutability":"view"},{"type":"function","name":"listOfUserAddresses","inputs":[{"name":"","type":"uint256","internalType":"uint256"}],"outputs":[{"name":"","type":"address","internalType":"address"}],"stateMutability":"view"},{"type":"function","name":"name","inputs":[],"outputs":[{"name":"","type":"string","internalType":"string"}],"stateMutability":"view"},{"type":"function","name":"nextTokenId","inputs":[],"outputs":[{"name":"","type":"uint256","internalType":"uint256"}],"stateMutability":"view"},{"type":"function","name":"ownerOf","inputs":[{"name":"tokenId","type":"uint256","internalType":"uint256"}],"outputs":[{"name":"","type":"address","internalType":"address"}],"stateMutability":"view"},{"type":"function","name":"readUSDPriceFromETH","inputs":[],"outputs":[{"name":"val","type":"uint256","internalType":"uint256"}],"stateMutability":"view"},{"type":"function","name":"safeTransferFrom","inputs":[{"name":"from","type":"address","internalType":"address"},{"name":"to","type":"address","internalType":"address"},{"name":"tokenId","type":"uint256","internalType":"uint256"}],"outputs":[],"stateMutability":"nonpayable"},{"type":"function","name":"safeTransferFrom","inputs":[{"name":"from","type":"address","internalType":"address"},{"name":"to","type":"address","internalType":"address"},{"name":"tokenId","type":"uint256","internalType":"uint256"},{"name":"data","type":"bytes","internalType":"bytes"}],"outputs":[],"stateMutability":"nonpayable"},{"type":"function","name":"selfKisser","inputs":[],"outputs":[{"name":"","type":"address","internalType":"contract ISelfKisser"}],"stateMutability":"view"},{"type":"function","name":"setApprovalForAll","inputs":[{"name":"operator","type":"address","internalType":"address"},{"name":"approved","type":"bool","internalType":"bool"}],"outputs":[],"stateMutability":"nonpayable"},{"type":"function","name":"supportsInterface","inputs":[{"name":"interfaceId","type":"bytes4","internalType":"bytes4"}],"outputs":[{"name":"","type":"bool","internalType":"bool"}],"stateMutability":"view"},{"type":"function","name":"symbol","inputs":[],"outputs":[{"name":"","type":"string","internalType":"string"}],"stateMutability":"view"},{"type":"function","name":"tokenURI","inputs":[{"name":"tokenId","type":"uint256","internalType":"uint256"}],"outputs":[{"name":"","type":"string","internalType":"string"}],"stateMutability":"view"},{"type":"function","name":"transferFrom","inputs":[{"name":"from","type":"address","internalType":"address"},{"name":"to","type":"address","internalType":"address"},{"name":"tokenId","type":"uint256","internalType":"uint256"}],"outputs":[],"stateMutability":"nonpayable"},{"type":"event","name":"Approval","inputs":[{"name":"owner","type":"address","indexed":true,"internalType":"address"},{"name":"approved","type":"address","indexed":true,"internalType":"address"},{"name":"tokenId","type":"uint256","indexed":true,"internalType":"uint256"}],"anonymous":false},{"type":"event","name":"ApprovalForAll","inputs":[{"name":"owner","type":"address","indexed":true,"internalType":"address"},{"name":"operator","type":"address","indexed":true,"internalType":"address"},{"name":"approved","type":"bool","indexed":false,"internalType":"bool"}],"anonymous":false},{"type":"event","name":"BuyBottle","inputs":[{"name":"","type":"address","indexed":true,"internalType":"address"},{"name":"","type":"uint256","indexed":false,"internalType":"uint256"}],"anonymous":false},{"type":"event","name":"ContestWinner","inputs":[{"name":"","type":"address","indexed":true,"internalType":"address"},{"name":"","type":"uint256","indexed":true,"internalType":"uint256"}],"anonymous":false},{"type":"event","name":"CreatedBottle","inputs":[{"name":"creator","type":"address","indexed":true,"internalType":"address"},{"name":"name","type":"string","indexed":false,"internalType":"string"}],"anonymous":false},{"type":"event","name":"Transfer","inputs":[{"name":"from","type":"address","indexed":true,"internalType":"address"},{"name":"to","type":"address","indexed":true,"internalType":"address"},{"name":"tokenId","type":"uint256","indexed":true,"internalType":"uint256"}],"anonymous":false},{"type":"error","name":"ERC721IncorrectOwner","inputs":[{"name":"sender","type":"address","internalType":"address"},{"name":"tokenId","type":"uint256","internalType":"uint256"},{"name":"owner","type":"address","internalType":"address"}]},{"type":"error","name":"ERC721InsufficientApproval","inputs":[{"name":"operator","type":"address","internalType":"address"},{"name":"tokenId","type":"uint256","internalType":"uint256"}]},{"type":"error","name":"ERC721InvalidApprover","inputs":[{"name":"approver","type":"address","internalType":"address"}]},{"type":"error","name":"ERC721InvalidOperator","inputs":[{"name":"operator","type":"address","internalType":"address"}]},{"type":"error","name":"ERC721InvalidOwner","inputs":[{"name":"owner","type":"address","internalType":"address"}]},{"type":"error","name":"ERC721InvalidReceiver","inputs":[{"name":"receiver","type":"address","internalType":"address"}]},{"type":"error","name":"ERC721InvalidSender","inputs":[{"name":"sender","type":"address","internalType":"address"}]},{"type":"error","name":"ERC721NonexistentToken","inputs":[{"name":"tokenId","type":"uint256","internalType":"uint256"}]}],"bytecode":{"object":"0x608060405234801561001057600080fd5b506040516123a93803806123a983398101604081905261002f91610159565b81816040518060400160405280600a81526020016957696e65426f74746c6560b01b8152506040518060400160405280600481526020016315d0951360e21b8152508160009081610080919061023b565b50600161008d828261023b565b5050600680546001600160a01b03199081166001600160a01b038681169182179093556007805490921692851692831790915560405163c529a67960e01b81526004810192909252915063c529a67990602401600060405180830381600087803b1580156100fa57600080fd5b505af115801561010e573d6000803e3d6000fd5b5050600880546001600160a01b0319166001600160a01b039890981697909717909655506102f9945050505050565b80516001600160a01b038116811461015457600080fd5b919050565b60008060006060848603121561016e57600080fd5b6101778461013d565b92506101856020850161013d565b91506101936040850161013d565b90509250925092565b634e487b7160e01b600052604160045260246000fd5b600181811c908216806101c657607f821691505b6020821081036101e657634e487b7160e01b600052602260045260246000fd5b50919050565b601f82111561023657806000526020600020601f840160051c810160208510156102135750805b601f840160051c820191505b81811015610233576000815560010161021f565b50505b505050565b81516001600160401b038111156102545761025461019c565b6102688161026284546101b2565b846101ec565b6020601f82116001811461029c57600083156102845750848201515b600019600385901b1c1916600184901b178455610233565b600084815260208120601f198516915b828110156102cc57878501518255602094850194600190920191016102ac565b50848210156102ea5786840151600019600387901b60f8161c191681555b50505050600190811b01905550565b6120a1806103086000396000f3fe6080604052600436106101a05760003560e01c806352a5f1f8116100ec578063b314fac21161008a578063c87b56dd11610064578063c87b56dd146104ae578063d709b0e9146104ce578063e985e9c5146104fe578063f95a408a1461051e57600080fd5b8063b314fac21461045b578063b416ca641461046e578063b88d4fde1461048e57600080fd5b806375794a3c116100c657806375794a3c146103fd57806395d89b4114610413578063a22cb46514610428578063a40c88e71461044857600080fd5b806352a5f1f81461039d5780636352211e146103bd57806370a08231146103dd57600080fd5b806323b872dd11610159578063280612d611610133578063280612d61461031d57806332f929fc1461033d57806342842e0e1461035d57806347ce07cc1461037d57600080fd5b806323b872dd146102a05780632593711a146102c0578063267a97df146102f057600080fd5b806301ffc9a7146101ac57806306fdde03146101e1578063081812fc14610203578063095ea7b31461023b57806310dd371c1461025d57806319fdbaef1461028b57600080fd5b366101a757005b600080fd5b3480156101b857600080fd5b506101cc6101c736600461192a565b61054e565b60405190151581526020015b60405180910390f35b3480156101ed57600080fd5b506101f66105a0565b6040516101d89190611997565b34801561020f57600080fd5b5061022361021e3660046119aa565b610632565b6040516001600160a01b0390911681526020016101d8565b34801561024757600080fd5b5061025b6102563660046119d8565b61065b565b005b34801561026957600080fd5b5061027d610278366004611ab4565b61066a565b6040519081526020016101d8565b34801561029757600080fd5b5061027d6106a8565b3480156102ac57600080fd5b5061025b6102bb366004611b38565b61071b565b3480156102cc57600080fd5b506101cc6102db366004611b79565b600a6020526000908152604090205460ff1681565b3480156102fc57600080fd5b5061027d61030b3660046119aa565b600e6020526000908152604090205481565b34801561032957600080fd5b506102236103383660046119aa565b6107ab565b34801561034957600080fd5b50600654610223906001600160a01b031681565b34801561036957600080fd5b5061025b610378366004611b38565b6107d5565b34801561038957600080fd5b50600854610223906001600160a01b031681565b3480156103a957600080fd5b5061025b6103b8366004611bac565b6107f5565b3480156103c957600080fd5b506102236103d83660046119aa565b6108d0565b3480156103e957600080fd5b5061027d6103f8366004611b79565b6108db565b34801561040957600080fd5b5061027d60095481565b34801561041f57600080fd5b506101f6610923565b34801561043457600080fd5b5061025b610443366004611bcc565b610932565b61025b610456366004611c0a565b61093d565b61025b6104693660046119aa565b610bd4565b34801561047a57600080fd5b5061027d610489366004611c2c565b610e27565b34801561049a57600080fd5b5061025b6104a9366004611ca5565b610f0f565b3480156104ba57600080fd5b506101f66104c93660046119aa565b610f27565b3480156104da57600080fd5b506104ee6104e93660046119aa565b610f9c565b6040516101d89493929190611d25565b34801561050a57600080fd5b506101cc610519366004611d5e565b6110d4565b34801561052a57600080fd5b506101cc6105393660046119aa565b600d6020526000908152604090205460ff1681565b60006001600160e01b031982166380ac58cd60e01b148061057f57506001600160e01b03198216635b5e139f60e01b145b8061059a57506301ffc9a760e01b6001600160e01b03198316145b92915050565b6060600080546105af90611d8c565b80601f01602080910402602001604051908101604052809291908181526020018280546105db90611d8c565b80156106285780601f106105fd57610100808354040283529160200191610628565b820191906000526020600020905b81548152906001019060200180831161060b57829003601f168201915b5050505050905090565b600061063d82611102565b506000828152600460205260409020546001600160a01b031661059a565b61066682823361113b565b5050565b60008061067987878787610e27565b6000818152600d60209081526040808320805460ff19169055600e909152902084905591505095945050505050565b600754604080516315f789a960e21b815290516000926001600160a01b0316916357de26a49160048083019260209291908290030181865afa1580156106f2573d6000803e3d6000fd5b505050506040513d601f19601f820116820180604052508101906107169190611dc6565b905090565b6001600160a01b03821661074a57604051633250574960e11b8152600060048201526024015b60405180910390fd5b6000610757838333611148565b9050836001600160a01b0316816001600160a01b0316146107a5576040516364283d7b60e01b81526001600160a01b0380861660048301526024820184905282166044820152606401610741565b50505050565b600b81815481106107bb57600080fd5b6000918252602090912001546001600160a01b0316905081565b6107f083838360405180602001604052806000815250610f0f565b505050565b60006108096008546001600160a01b031690565b90506001600160a01b0381166108615760405162461bcd60e51b815260206004820152601760248201527f456e74726f70792061646472657373206e6f74207365740000000000000000006044820152606401610741565b336001600160a01b038216146108c55760405162461bcd60e51b815260206004820152602360248201527f4f6e6c7920456e74726f70792063616e2063616c6c20746869732066756e637460448201526234b7b760e91b6064820152608401610741565b6107a5848484611241565b600061059a82611102565b60006001600160a01b038216610907576040516322718ad960e21b815260006004820152602401610741565b506001600160a01b031660009081526003602052604090205490565b6060600180546105af90611d8c565b6106663383836112f7565b6000828152600e60205260409020546109885760405162461bcd60e51b815260206004820152600d60248201526c139bdd08184818dbdb9d195cdd609a1b6044820152606401610741565b6000828152600e602052604090205442116109dc5760405162461bcd60e51b815260206004820152601460248201527310dbdb9d195cdd081b9bdd08199a5b9a5cda195960621b6044820152606401610741565b600854604080516320bba64360e21b815290516000926001600160a01b03169163b88c91489183916382ee990c9160048083019260209291908290030181865afa158015610a2e573d6000803e3d6000fd5b505050506040513d601f19601f82011682018060405250810190610a529190611ddf565b6040516001600160e01b031960e084901b1681526001600160a01b039091166004820152602401602060405180830381865afa158015610a96573d6000803e3d6000fd5b505050506040513d601f19601f82011682018060405250810190610aba9190611dfc565b600854604080516320bba64360e21b815290516001600160801b039390931693506000926001600160a01b03909216916319cb825f91859184916382ee990c9160048083019260209291908290030181865afa158015610b1e573d6000803e3d6000fd5b505050506040513d601f19601f82011682018060405250810190610b429190611ddf565b6040516001600160e01b031960e085901b1681526001600160a01b0390911660048201526024810187905260440160206040518083038185885af1158015610b8e573d6000803e3d6000fd5b50505050506040513d601f19601f82011682018060405250810190610bb39190611e25565b67ffffffffffffffff166000908152600f6020526040902093909355505050565b6000818152600d602052604090205460ff16610c215760405162461bcd60e51b815260206004820152600c60248201526b1393d517d193d497d4d1531360a21b6044820152606401610741565b6000818152600d60209081526040808320805460ff19169055338352600a90915290205460ff16610ca757600b805460018181019092557f0175b7a638427703f0dbe7bb9bbf987a2551717b34e79f33b5b1008d1fa01db90180546001600160a01b031916339081179091556000908152600a60205260409020805460ff191690911790555b6000610cb16106a8565b90506000670de0b6b3a7640000610cc88334611e58565b610cd29190611e85565b90506000610ce8670de0b6b3a764000083611e85565b6000858152600c6020526040902060030154909150811015610d585760405162461bcd60e51b815260206004820152602360248201527f4e6f7420656e6f756768207765692066726f6d207573646320636f6e7665727360448201526234b7b760e91b6064820152608401610741565b6040516000908190309034908381818185875af1925050503d8060008114610d9c576040519150601f19603f3d011682016040523d82523d6000602084013e610da1565b606091505b509150915081610dea5760405162461bcd60e51b81526020600482015260146024820152732330b4b632b2103a379039b2b7321022ba3432b960611b6044820152606401610741565b60405186815233907f822cd8cda2d2b3feb2339ab2e79a3b336b792f0a912867901e963e928afd3be89060200160405180910390a2505050505050565b6009805460009182919082610e3b83611e99565b919050559050610e4b3382611396565b604080516080810182528781526020808201889052818301879052606082018690526000848152600c9091529190912081518190610e899082611ef9565b5060208201516001820190610e9e9082611ef9565b5060408281015160028301556060909201516003909101556000828152600d602052819020805460ff191660011790555133907fe255251eed8f30a14a47cb9a84df853efd269d8c7f126beea3903a53af743cc190610efe908990611997565b60405180910390a295945050505050565b610f1a84848461071b565b6107a533858585856113fb565b6060610f3282611102565b506000610f4a60408051602081019091526000815290565b90506000815111610f6a5760405180602001604052806000815250610f95565b80610f7484611526565b604051602001610f85929190611fb8565b6040516020818303038152906040525b9392505050565b600c60205260009081526040902080548190610fb790611d8c565b80601f0160208091040260200160405190810160405280929190818152602001828054610fe390611d8c565b80156110305780601f1061100557610100808354040283529160200191611030565b820191906000526020600020905b81548152906001019060200180831161101357829003601f168201915b50505050509080600101805461104590611d8c565b80601f016020809104026020016040519081016040528092919081815260200182805461107190611d8c565b80156110be5780601f10611093576101008083540402835291602001916110be565b820191906000526020600020905b8154815290600101906020018083116110a157829003601f168201915b5050505050908060020154908060030154905084565b6001600160a01b03918216600090815260056020908152604080832093909416825291909152205460ff1690565b6000818152600260205260408120546001600160a01b03168061059a57604051637e27328960e01b815260048101849052602401610741565b6107f083838360016115b9565b6000828152600260205260408120546001600160a01b0390811690831615611175576111758184866116bf565b6001600160a01b038116156111b3576111926000856000806115b9565b6001600160a01b038116600090815260036020526040902080546000190190555b6001600160a01b038516156111e2576001600160a01b0385166000908152600360205260409020805460010190555b60008481526002602052604080822080546001600160a01b0319166001600160a01b0389811691821790925591518793918516917fddf252ad1be2c89b69c2b068fc378daa952ba7f163c4a11628f55a4df523b3ef91a4949350505050565b67ffffffffffffffff83166000908152600f6020526040812054600b5490919061126b9084611fe7565b905061129f30600b838154811061128457611284611ffb565b6000918252602090912001546001600160a01b031684611723565b81600b82815481106112b3576112b3611ffb565b60009182526020822001546040516001600160a01b03909116917f5eb916b81b980e51b8a3c54e722221c5c0087598d96e13bd35b7549e6232c54091a35050505050565b6001600160a01b03821661132957604051630b61174360e31b81526001600160a01b0383166004820152602401610741565b6001600160a01b03838116600081815260056020908152604080832094871680845294825291829020805460ff191686151590811790915591519182527f17307eab39ab6107e8899845ad3d59bd9653f200f220920489ca2b5937696c31910160405180910390a3505050565b6001600160a01b0382166113c057604051633250574960e11b815260006004820152602401610741565b60006113ce83836000611148565b90506001600160a01b038116156107f0576040516339e3563760e11b815260006004820152602401610741565b6001600160a01b0383163b1561151f57604051630a85bd0160e11b81526001600160a01b0384169063150b7a029061143d908890889087908790600401612011565b6020604051808303816000875af1925050508015611478575060408051601f3d908101601f191682019092526114759181019061204e565b60015b6114e1573d8080156114a6576040519150601f19603f3d011682016040523d82523d6000602084013e6114ab565b606091505b5080516000036114d957604051633250574960e11b81526001600160a01b0385166004820152602401610741565b805181602001fd5b6001600160e01b03198116630a85bd0160e11b1461151d57604051633250574960e11b81526001600160a01b0385166004820152602401610741565b505b5050505050565b60606000611533836117d3565b600101905060008167ffffffffffffffff81111561155357611553611a04565b6040519080825280601f01601f19166020018201604052801561157d576020820181803683370190505b5090508181016020015b600019016f181899199a1a9b1b9c1cb0b131b232b360811b600a86061a8153600a850494508461158757509392505050565b80806115cd57506001600160a01b03821615155b1561168f5760006115dd84611102565b90506001600160a01b038316158015906116095750826001600160a01b0316816001600160a01b031614155b801561161c575061161a81846110d4565b155b156116455760405163a9fbf51f60e01b81526001600160a01b0384166004820152602401610741565b811561168d5783856001600160a01b0316826001600160a01b03167f8c5be1e5ebec7d5bd14f71427d1e84f3dd0314c0f7b2291e5b200ac8c7c3b92560405160405180910390a45b505b5050600090815260046020526040902080546001600160a01b0319166001600160a01b0392909216919091179055565b6116ca8383836118ab565b6107f0576001600160a01b0383166116f857604051637e27328960e01b815260048101829052602401610741565b60405163177e802f60e01b81526001600160a01b038316600482015260248101829052604401610741565b6001600160a01b03821661174d57604051633250574960e11b815260006004820152602401610741565b600061175b83836000611148565b90506001600160a01b03811661178757604051637e27328960e01b815260048101839052602401610741565b836001600160a01b0316816001600160a01b0316146107a5576040516364283d7b60e01b81526001600160a01b0380861660048301526024820184905282166044820152606401610741565b60008072184f03e93ff9f4daa797ed6e38ed64bf6a1f0160401b83106118125772184f03e93ff9f4daa797ed6e38ed64bf6a1f0160401b830492506040015b6d04ee2d6d415b85acef8100000000831061183e576d04ee2d6d415b85acef8100000000830492506020015b662386f26fc10000831061185c57662386f26fc10000830492506010015b6305f5e1008310611874576305f5e100830492506008015b612710831061188857612710830492506004015b6064831061189a576064830492506002015b600a831061059a5760010192915050565b60006001600160a01b038316158015906119095750826001600160a01b0316846001600160a01b031614806118e557506118e584846110d4565b8061190957506000828152600460205260409020546001600160a01b038481169116145b949350505050565b6001600160e01b03198116811461192757600080fd5b50565b60006020828403121561193c57600080fd5b8135610f9581611911565b60005b8381101561196257818101518382015260200161194a565b50506000910152565b60008151808452611983816020860160208601611947565b601f01601f19169290920160200192915050565b602081526000610f95602083018461196b565b6000602082840312156119bc57600080fd5b5035919050565b6001600160a01b038116811461192757600080fd5b600080604083850312156119eb57600080fd5b82356119f6816119c3565b946020939093013593505050565b634e487b7160e01b600052604160045260246000fd5b60008067ffffffffffffffff841115611a3557611a35611a04565b50604051601f19601f85018116603f0116810181811067ffffffffffffffff82111715611a6457611a64611a04565b604052838152905080828401851015611a7c57600080fd5b83836020830137600060208583010152509392505050565b600082601f830112611aa557600080fd5b610f9583833560208501611a1a565b600080600080600060a08688031215611acc57600080fd5b853567ffffffffffffffff811115611ae357600080fd5b611aef88828901611a94565b955050602086013567ffffffffffffffff811115611b0c57600080fd5b611b1888828901611a94565b959895975050505060408401359360608101359360809091013592509050565b600080600060608486031215611b4d57600080fd5b8335611b58816119c3565b92506020840135611b68816119c3565b929592945050506040919091013590565b600060208284031215611b8b57600080fd5b8135610f95816119c3565b67ffffffffffffffff8116811461192757600080fd5b600080600060608486031215611bc157600080fd5b8335611b5881611b96565b60008060408385031215611bdf57600080fd5b8235611bea816119c3565b915060208301358015158114611bff57600080fd5b809150509250929050565b60008060408385031215611c1d57600080fd5b50508035926020909101359150565b60008060008060808587031215611c4257600080fd5b843567ffffffffffffffff811115611c5957600080fd5b611c6587828801611a94565b945050602085013567ffffffffffffffff811115611c8257600080fd5b611c8e87828801611a94565b949794965050505060408301359260600135919050565b60008060008060808587031215611cbb57600080fd5b8435611cc6816119c3565b93506020850135611cd6816119c3565b925060408501359150606085013567ffffffffffffffff811115611cf957600080fd5b8501601f81018713611d0a57600080fd5b611d1987823560208401611a1a565b91505092959194509250565b608081526000611d38608083018761196b565b8281036020840152611d4a818761196b565b604084019590955250506060015292915050565b60008060408385031215611d7157600080fd5b8235611d7c816119c3565b91506020830135611bff816119c3565b600181811c90821680611da057607f821691505b602082108103611dc057634e487b7160e01b600052602260045260246000fd5b50919050565b600060208284031215611dd857600080fd5b5051919050565b600060208284031215611df157600080fd5b8151610f95816119c3565b600060208284031215611e0e57600080fd5b81516001600160801b0381168114610f9557600080fd5b600060208284031215611e3757600080fd5b8151610f9581611b96565b634e487b7160e01b600052601160045260246000fd5b808202811582820484141761059a5761059a611e42565b634e487b7160e01b600052601260045260246000fd5b600082611e9457611e94611e6f565b500490565b600060018201611eab57611eab611e42565b5060010190565b601f8211156107f057806000526020600020601f840160051c81016020851015611ed95750805b601f840160051c820191505b8181101561151f5760008155600101611ee5565b815167ffffffffffffffff811115611f1357611f13611a04565b611f2781611f218454611d8c565b84611eb2565b6020601f821160018114611f5b5760008315611f435750848201515b600019600385901b1c1916600184901b17845561151f565b600084815260208120601f198516915b82811015611f8b5787850151825560209485019460019092019101611f6b565b5084821015611fa95786840151600019600387901b60f8161c191681555b50505050600190811b01905550565b60008351611fca818460208801611947565b835190830190611fde818360208801611947565b01949350505050565b600082611ff657611ff6611e6f565b500690565b634e487b7160e01b600052603260045260246000fd5b6001600160a01b03858116825284166020820152604081018390526080606082018190526000906120449083018461196b565b9695505050505050565b60006020828403121561206057600080fd5b8151610f958161191156fea264697066735822122025e83c2a4ff8b2782fe103b12b3ff0b065bd745afafc349d1f0eccba837a3a8c64736f6c634300081a0033","linkReferences":{}},"methodIdentifiers":{"_entropyCallback(uint64,address,bytes32)":"52a5f1f8","addBottle(string,string,uint256,uint256)":"b416ca64","alreadyBuy(address)":"2593711a","approve(address,uint256)":"095ea7b3","balanceOf(address)":"70a08231","bottleData(uint256)":"d709b0e9","buyBottle(uint256)":"b314fac2","contestTimeStamp(uint256)":"267a97df","createContest(string,string,uint256,uint256,uint256)":"10dd371c","endContest(uint256,bytes32)":"a40c88e7","entropy()":"47ce07cc","forSell(uint256)":"f95a408a","getApproved(uint256)":"081812fc","isApprovedForAll(address,address)":"e985e9c5","listOfUserAddresses(uint256)":"280612d6","name()":"06fdde03","nextTokenId()":"75794a3c","ownerOf(uint256)":"6352211e","readUSDPriceFromETH()":"19fdbaef","safeTransferFrom(address,address,uint256)":"42842e0e","safeTransferFrom(address,address,uint256,bytes)":"b88d4fde","selfKisser()":"32f929fc","setApprovalForAll(address,bool)":"a22cb465","supportsInterface(bytes4)":"01ffc9a7","symbol()":"95d89b41","tokenURI(uint256)":"c87b56dd","transferFrom(address,address,uint256)":"23b872dd"},"id":39}