{
    "abi": [
        {
            "type": "constructor",
            "inputs": [
                {
                    "name": "entropyAddress",
                    "type": "address",
                    "internalType": "address"
                },
                {
                    "name": "selfKisserAddress",
                    "type": "address",
                    "internalType": "address"
                },
                {
                    "name": "chronicleOracleAddress_ETH_USD",
                    "type": "address",
                    "internalType": "address"
                }
            ],
            "stateMutability": "nonpayable"
        },
        {
            "type": "function",
            "name": "_entropyCallback",
            "inputs": [
                {
                    "name": "sequence",
                    "type": "uint64",
                    "internalType": "uint64"
                },
                {
                    "name": "provider",
                    "type": "address",
                    "internalType": "address"
                },
                {
                    "name": "randomNumber",
                    "type": "bytes32",
                    "internalType": "bytes32"
                }
            ],
            "outputs": [],
            "stateMutability": "nonpayable"
        },
        {
            "type": "function",
            "name": "addBottle",
            "inputs": [
                {
                    "name": "name",
                    "type": "string",
                    "internalType": "string"
                },
                {
                    "name": "description",
                    "type": "string",
                    "internalType": "string"
                },
                {
                    "name": "year",
                    "type": "uint256",
                    "internalType": "uint256"
                },
                {
                    "name": "priceUSD",
                    "type": "uint256",
                    "internalType": "uint256"
                }
            ],
            "outputs": [
                {
                    "name": "",
                    "type": "uint256",
                    "internalType": "uint256"
                }
            ],
            "stateMutability": "nonpayable"
        },
        {
            "type": "function",
            "name": "alreadyBuy",
            "inputs": [
                {
                    "name": "",
                    "type": "address",
                    "internalType": "address"
                }
            ],
            "outputs": [
                {
                    "name": "",
                    "type": "bool",
                    "internalType": "bool"
                }
            ],
            "stateMutability": "view"
        },
        {
            "type": "function",
            "name": "approve",
            "inputs": [
                {
                    "name": "to",
                    "type": "address",
                    "internalType": "address"
                },
                {
                    "name": "tokenId",
                    "type": "uint256",
                    "internalType": "uint256"
                }
            ],
            "outputs": [],
            "stateMutability": "nonpayable"
        },
        {
            "type": "function",
            "name": "balanceOf",
            "inputs": [
                {
                    "name": "owner",
                    "type": "address",
                    "internalType": "address"
                }
            ],
            "outputs": [
                {
                    "name": "",
                    "type": "uint256",
                    "internalType": "uint256"
                }
            ],
            "stateMutability": "view"
        },
        {
            "type": "function",
            "name": "bottleData",
            "inputs": [
                {
                    "name": "",
                    "type": "uint256",
                    "internalType": "uint256"
                }
            ],
            "outputs": [
                {
                    "name": "name",
                    "type": "string",
                    "internalType": "string"
                },
                {
                    "name": "description",
                    "type": "string",
                    "internalType": "string"
                },
                {
                    "name": "year",
                    "type": "uint256",
                    "internalType": "uint256"
                },
                {
                    "name": "priceUSD",
                    "type": "uint256",
                    "internalType": "uint256"
                }
            ],
            "stateMutability": "view"
        },
        {
            "type": "function",
            "name": "buyBottle",
            "inputs": [
                {
                    "name": "tokenId",
                    "type": "uint256",
                    "internalType": "uint256"
                }
            ],
            "outputs": [],
            "stateMutability": "payable"
        },
        {
            "type": "function",
            "name": "contestTimeStamp",
            "inputs": [
                {
                    "name": "",
                    "type": "uint256",
                    "internalType": "uint256"
                }
            ],
            "outputs": [
                {
                    "name": "",
                    "type": "uint256",
                    "internalType": "uint256"
                }
            ],
            "stateMutability": "view"
        },
        {
            "type": "function",
            "name": "createContest",
            "inputs": [
                {
                    "name": "name",
                    "type": "string",
                    "internalType": "string"
                },
                {
                    "name": "description",
                    "type": "string",
                    "internalType": "string"
                },
                {
                    "name": "year",
                    "type": "uint256",
                    "internalType": "uint256"
                },
                {
                    "name": "priceUSD",
                    "type": "uint256",
                    "internalType": "uint256"
                },
                {
                    "name": "dateEndContest",
                    "type": "uint256",
                    "internalType": "uint256"
                }
            ],
            "outputs": [
                {
                    "name": "",
                    "type": "uint256",
                    "internalType": "uint256"
                }
            ],
            "stateMutability": "nonpayable"
        },
        {
            "type": "function",
            "name": "endContest",
            "inputs": [
                {
                    "name": "tokenId",
                    "type": "uint256",
                    "internalType": "uint256"
                },
                {
                    "name": "userRandomNumber",
                    "type": "bytes32",
                    "internalType": "bytes32"
                }
            ],
            "outputs": [],
            "stateMutability": "payable"
        },
        {
            "type": "function",
            "name": "entropy",
            "inputs": [],
            "outputs": [
                {
                    "name": "",
                    "type": "address",
                    "internalType": "contract IEntropy"
                }
            ],
            "stateMutability": "view"
        },
        {
            "type": "function",
            "name": "forSell",
            "inputs": [
                {
                    "name": "",
                    "type": "uint256",
                    "internalType": "uint256"
                }
            ],
            "outputs": [
                {
                    "name": "",
                    "type": "bool",
                    "internalType": "bool"
                }
            ],
            "stateMutability": "view"
        },
        {
            "type": "function",
            "name": "getApproved",
            "inputs": [
                {
                    "name": "tokenId",
                    "type": "uint256",
                    "internalType": "uint256"
                }
            ],
            "outputs": [
                {
                    "name": "",
                    "type": "address",
                    "internalType": "address"
                }
            ],
            "stateMutability": "view"
        },
        {
            "type": "function",
            "name": "isApprovedForAll",
            "inputs": [
                {
                    "name": "owner",
                    "type": "address",
                    "internalType": "address"
                },
                {
                    "name": "operator",
                    "type": "address",
                    "internalType": "address"
                }
            ],
            "outputs": [
                {
                    "name": "",
                    "type": "bool",
                    "internalType": "bool"
                }
            ],
            "stateMutability": "view"
        },
        {
            "type": "function",
            "name": "listOfUserAddresses",
            "inputs": [
                {
                    "name": "",
                    "type": "uint256",
                    "internalType": "uint256"
                }
            ],
            "outputs": [
                {
                    "name": "",
                    "type": "address",
                    "internalType": "address"
                }
            ],
            "stateMutability": "view"
        },
        {
            "type": "function",
            "name": "name",
            "inputs": [],
            "outputs": [
                {
                    "name": "",
                    "type": "string",
                    "internalType": "string"
                }
            ],
            "stateMutability": "view"
        },
        {
            "type": "function",
            "name": "nextTokenId",
            "inputs": [],
            "outputs": [
                {
                    "name": "",
                    "type": "uint256",
                    "internalType": "uint256"
                }
            ],
            "stateMutability": "view"
        },
        {
            "type": "function",
            "name": "ownerOf",
            "inputs": [
                {
                    "name": "tokenId",
                    "type": "uint256",
                    "internalType": "uint256"
                }
            ],
            "outputs": [
                {
                    "name": "",
                    "type": "address",
                    "internalType": "address"
                }
            ],
            "stateMutability": "view"
        },
        {
            "type": "function",
            "name": "safeTransferFrom",
            "inputs": [
                {
                    "name": "from",
                    "type": "address",
                    "internalType": "address"
                },
                {
                    "name": "to",
                    "type": "address",
                    "internalType": "address"
                },
                {
                    "name": "tokenId",
                    "type": "uint256",
                    "internalType": "uint256"
                }
            ],
            "outputs": [],
            "stateMutability": "nonpayable"
        },
        {
            "type": "function",
            "name": "safeTransferFrom",
            "inputs": [
                {
                    "name": "from",
                    "type": "address",
                    "internalType": "address"
                },
                {
                    "name": "to",
                    "type": "address",
                    "internalType": "address"
                },
                {
                    "name": "tokenId",
                    "type": "uint256",
                    "internalType": "uint256"
                },
                {
                    "name": "data",
                    "type": "bytes",
                    "internalType": "bytes"
                }
            ],
            "outputs": [],
            "stateMutability": "nonpayable"
        },
        {
            "type": "function",
            "name": "selfKisser",
            "inputs": [],
            "outputs": [
                {
                    "name": "",
                    "type": "address",
                    "internalType": "contract ISelfKisser"
                }
            ],
            "stateMutability": "view"
        },
        {
            "type": "function",
            "name": "setApprovalForAll",
            "inputs": [
                {
                    "name": "operator",
                    "type": "address",
                    "internalType": "address"
                },
                {
                    "name": "approved",
                    "type": "bool",
                    "internalType": "bool"
                }
            ],
            "outputs": [],
            "stateMutability": "nonpayable"
        },
        {
            "type": "function",
            "name": "supportsInterface",
            "inputs": [
                {
                    "name": "interfaceId",
                    "type": "bytes4",
                    "internalType": "bytes4"
                }
            ],
            "outputs": [
                {
                    "name": "",
                    "type": "bool",
                    "internalType": "bool"
                }
            ],
            "stateMutability": "view"
        },
        {
            "type": "function",
            "name": "symbol",
            "inputs": [],
            "outputs": [
                {
                    "name": "",
                    "type": "string",
                    "internalType": "string"
                }
            ],
            "stateMutability": "view"
        },
        {
            "type": "function",
            "name": "tokenURI",
            "inputs": [
                {
                    "name": "tokenId",
                    "type": "uint256",
                    "internalType": "uint256"
                }
            ],
            "outputs": [
                {
                    "name": "",
                    "type": "string",
                    "internalType": "string"
                }
            ],
            "stateMutability": "view"
        },
        {
            "type": "function",
            "name": "transferFrom",
            "inputs": [
                {
                    "name": "from",
                    "type": "address",
                    "internalType": "address"
                },
                {
                    "name": "to",
                    "type": "address",
                    "internalType": "address"
                },
                {
                    "name": "tokenId",
                    "type": "uint256",
                    "internalType": "uint256"
                }
            ],
            "outputs": [],
            "stateMutability": "nonpayable"
        },
        {
            "type": "event",
            "name": "Approval",
            "inputs": [
                {
                    "name": "owner",
                    "type": "address",
                    "indexed": true,
                    "internalType": "address"
                },
                {
                    "name": "approved",
                    "type": "address",
                    "indexed": true,
                    "internalType": "address"
                },
                {
                    "name": "tokenId",
                    "type": "uint256",
                    "indexed": true,
                    "internalType": "uint256"
                }
            ],
            "anonymous": false
        },
        {
            "type": "event",
            "name": "ApprovalForAll",
            "inputs": [
                {
                    "name": "owner",
                    "type": "address",
                    "indexed": true,
                    "internalType": "address"
                },
                {
                    "name": "operator",
                    "type": "address",
                    "indexed": true,
                    "internalType": "address"
                },
                {
                    "name": "approved",
                    "type": "bool",
                    "indexed": false,
                    "internalType": "bool"
                }
            ],
            "anonymous": false
        },
        {
            "type": "event",
            "name": "BuyBottle",
            "inputs": [
                {
                    "name": "",
                    "type": "address",
                    "indexed": true,
                    "internalType": "address"
                },
                {
                    "name": "",
                    "type": "uint256",
                    "indexed": false,
                    "internalType": "uint256"
                }
            ],
            "anonymous": false
        },
        {
            "type": "event",
            "name": "ContestWinner",
            "inputs": [
                {
                    "name": "",
                    "type": "address",
                    "indexed": true,
                    "internalType": "address"
                },
                {
                    "name": "",
                    "type": "uint256",
                    "indexed": true,
                    "internalType": "uint256"
                }
            ],
            "anonymous": false
        },
        {
            "type": "event",
            "name": "CreatedBottle",
            "inputs": [
                {
                    "name": "creator",
                    "type": "address",
                    "indexed": true,
                    "internalType": "address"
                },
                {
                    "name": "name",
                    "type": "string",
                    "indexed": false,
                    "internalType": "string"
                }
            ],
            "anonymous": false
        },
        {
            "type": "event",
            "name": "Transfer",
            "inputs": [
                {
                    "name": "from",
                    "type": "address",
                    "indexed": true,
                    "internalType": "address"
                },
                {
                    "name": "to",
                    "type": "address",
                    "indexed": true,
                    "internalType": "address"
                },
                {
                    "name": "tokenId",
                    "type": "uint256",
                    "indexed": true,
                    "internalType": "uint256"
                }
            ],
            "anonymous": false
        },
        {
            "type": "error",
            "name": "ERC721IncorrectOwner",
            "inputs": [
                {
                    "name": "sender",
                    "type": "address",
                    "internalType": "address"
                },
                {
                    "name": "tokenId",
                    "type": "uint256",
                    "internalType": "uint256"
                },
                {
                    "name": "owner",
                    "type": "address",
                    "internalType": "address"
                }
            ]
        },
        {
            "type": "error",
            "name": "ERC721InsufficientApproval",
            "inputs": [
                {
                    "name": "operator",
                    "type": "address",
                    "internalType": "address"
                },
                {
                    "name": "tokenId",
                    "type": "uint256",
                    "internalType": "uint256"
                }
            ]
        },
        {
            "type": "error",
            "name": "ERC721InvalidApprover",
            "inputs": [
                {
                    "name": "approver",
                    "type": "address",
                    "internalType": "address"
                }
            ]
        },
        {
            "type": "error",
            "name": "ERC721InvalidOperator",
            "inputs": [
                {
                    "name": "operator",
                    "type": "address",
                    "internalType": "address"
                }
            ]
        },
        {
            "type": "error",
            "name": "ERC721InvalidOwner",
            "inputs": [
                {
                    "name": "owner",
                    "type": "address",
                    "internalType": "address"
                }
            ]
        },
        {
            "type": "error",
            "name": "ERC721InvalidReceiver",
            "inputs": [
                {
                    "name": "receiver",
                    "type": "address",
                    "internalType": "address"
                }
            ]
        },
        {
            "type": "error",
            "name": "ERC721InvalidSender",
            "inputs": [
                {
                    "name": "sender",
                    "type": "address",
                    "internalType": "address"
                }
            ]
        },
        {
            "type": "error",
            "name": "ERC721NonexistentToken",
            "inputs": [
                {
                    "name": "tokenId",
                    "type": "uint256",
                    "internalType": "uint256"
                }
            ]
        }
    ],
    "bytecode": {
        "object": "0x608060405234801561001057600080fd5b5060405161236d38038061236d83398101604081905261002f91610159565b81816040518060400160405280600a81526020016957696e65426f74746c6560b01b8152506040518060400160405280600481526020016315d0951360e21b8152508160009081610080919061023b565b50600161008d828261023b565b5050600680546001600160a01b03199081166001600160a01b038681169182179093556007805490921692851692831790915560405163c529a67960e01b81526004810192909252915063c529a67990602401600060405180830381600087803b1580156100fa57600080fd5b505af115801561010e573d6000803e3d6000fd5b5050600880546001600160a01b0319166001600160a01b039890981697909717909655506102f9945050505050565b80516001600160a01b038116811461015457600080fd5b919050565b60008060006060848603121561016e57600080fd5b6101778461013d565b92506101856020850161013d565b91506101936040850161013d565b90509250925092565b634e487b7160e01b600052604160045260246000fd5b600181811c908216806101c657607f821691505b6020821081036101e657634e487b7160e01b600052602260045260246000fd5b50919050565b601f82111561023657806000526020600020601f840160051c810160208510156102135750805b601f840160051c820191505b81811015610233576000815560010161021f565b50505b505050565b81516001600160401b038111156102545761025461019c565b6102688161026284546101b2565b846101ec565b6020601f82116001811461029c57600083156102845750848201515b600019600385901b1c1916600184901b178455610233565b600084815260208120601f198516915b828110156102cc57878501518255602094850194600190920191016102ac565b50848210156102ea5786840151600019600387901b60f8161c191681555b50505050600190811b01905550565b612065806103086000396000f3fe6080604052600436106101815760003560e01c80636352211e116100d1578063b314fac21161008a578063c87b56dd11610064578063c87b56dd14610473578063d709b0e914610493578063e985e9c5146104c3578063f95a408a146104e357600080fd5b8063b314fac214610420578063b416ca6414610433578063b88d4fde1461045357600080fd5b80636352211e1461038257806370a08231146103a257806375794a3c146103c257806395d89b41146103d8578063a22cb465146103ed578063a40c88e71461040d57600080fd5b80632593711a1161013e57806332f929fc1161011857806332f929fc1461030257806342842e0e1461032257806347ce07cc1461034257806352a5f1f81461036257600080fd5b80632593711a14610285578063267a97df146102b5578063280612d6146102e257600080fd5b806301ffc9a71461018657806306fdde03146101bb578063081812fc146101dd578063095ea7b31461021557806310dd371c1461023757806323b872dd14610265575b600080fd5b34801561019257600080fd5b506101a66101a13660046118ee565b610513565b60405190151581526020015b60405180910390f35b3480156101c757600080fd5b506101d0610565565b6040516101b2919061195b565b3480156101e957600080fd5b506101fd6101f836600461196e565b6105f7565b6040516001600160a01b0390911681526020016101b2565b34801561022157600080fd5b5061023561023036600461199c565b610620565b005b34801561024357600080fd5b50610257610252366004611a78565b61062f565b6040519081526020016101b2565b34801561027157600080fd5b50610235610280366004611afc565b61066d565b34801561029157600080fd5b506101a66102a0366004611b3d565b600a6020526000908152604090205460ff1681565b3480156102c157600080fd5b506102576102d036600461196e565b600e6020526000908152604090205481565b3480156102ee57600080fd5b506101fd6102fd36600461196e565b6106fd565b34801561030e57600080fd5b506006546101fd906001600160a01b031681565b34801561032e57600080fd5b5061023561033d366004611afc565b610727565b34801561034e57600080fd5b506008546101fd906001600160a01b031681565b34801561036e57600080fd5b5061023561037d366004611b70565b610747565b34801561038e57600080fd5b506101fd61039d36600461196e565b610822565b3480156103ae57600080fd5b506102576103bd366004611b3d565b61082d565b3480156103ce57600080fd5b5061025760095481565b3480156103e457600080fd5b506101d0610875565b3480156103f957600080fd5b50610235610408366004611b90565b610884565b61023561041b366004611bce565b61088f565b61023561042e36600461196e565b610b26565b34801561043f57600080fd5b5061025761044e366004611bf0565b610d78565b34801561045f57600080fd5b5061023561046e366004611c69565b610e60565b34801561047f57600080fd5b506101d061048e36600461196e565b610e78565b34801561049f57600080fd5b506104b36104ae36600461196e565b610eed565b6040516101b29493929190611ce9565b3480156104cf57600080fd5b506101a66104de366004611d22565b611025565b3480156104ef57600080fd5b506101a66104fe36600461196e565b600d6020526000908152604090205460ff1681565b60006001600160e01b031982166380ac58cd60e01b148061054457506001600160e01b03198216635b5e139f60e01b145b8061055f57506301ffc9a760e01b6001600160e01b03198316145b92915050565b60606000805461057490611d50565b80601f01602080910402602001604051908101604052809291908181526020018280546105a090611d50565b80156105ed5780601f106105c2576101008083540402835291602001916105ed565b820191906000526020600020905b8154815290600101906020018083116105d057829003601f168201915b5050505050905090565b600061060282611053565b506000828152600460205260409020546001600160a01b031661055f565b61062b82823361108c565b5050565b60008061063e87878787610d78565b6000818152600d60209081526040808320805460ff19169055600e909152902084905591505095945050505050565b6001600160a01b03821661069c57604051633250574960e11b8152600060048201526024015b60405180910390fd5b60006106a9838333611099565b9050836001600160a01b0316816001600160a01b0316146106f7576040516364283d7b60e01b81526001600160a01b0380861660048301526024820184905282166044820152606401610693565b50505050565b600b818154811061070d57600080fd5b6000918252602090912001546001600160a01b0316905081565b61074283838360405180602001604052806000815250610e60565b505050565b600061075b6008546001600160a01b031690565b90506001600160a01b0381166107b35760405162461bcd60e51b815260206004820152601760248201527f456e74726f70792061646472657373206e6f74207365740000000000000000006044820152606401610693565b336001600160a01b038216146108175760405162461bcd60e51b815260206004820152602360248201527f4f6e6c7920456e74726f70792063616e2063616c6c20746869732066756e637460448201526234b7b760e91b6064820152608401610693565b6106f7848484611192565b600061055f82611053565b60006001600160a01b038216610859576040516322718ad960e21b815260006004820152602401610693565b506001600160a01b031660009081526003602052604090205490565b60606001805461057490611d50565b61062b338383611248565b6000828152600e60205260409020546108da5760405162461bcd60e51b815260206004820152600d60248201526c139bdd08184818dbdb9d195cdd609a1b6044820152606401610693565b6000828152600e6020526040902054421161092e5760405162461bcd60e51b815260206004820152601460248201527310dbdb9d195cdd081b9bdd08199a5b9a5cda195960621b6044820152606401610693565b600854604080516320bba64360e21b815290516000926001600160a01b03169163b88c91489183916382ee990c9160048083019260209291908290030181865afa158015610980573d6000803e3d6000fd5b505050506040513d601f19601f820116820180604052508101906109a49190611d8a565b6040516001600160e01b031960e084901b1681526001600160a01b039091166004820152602401602060405180830381865afa1580156109e8573d6000803e3d6000fd5b505050506040513d601f19601f82011682018060405250810190610a0c9190611da7565b600854604080516320bba64360e21b815290516001600160801b039390931693506000926001600160a01b03909216916319cb825f91859184916382ee990c9160048083019260209291908290030181865afa158015610a70573d6000803e3d6000fd5b505050506040513d601f19601f82011682018060405250810190610a949190611d8a565b6040516001600160e01b031960e085901b1681526001600160a01b0390911660048201526024810187905260440160206040518083038185885af1158015610ae0573d6000803e3d6000fd5b50505050506040513d601f19601f82011682018060405250810190610b059190611dd0565b67ffffffffffffffff166000908152600f6020526040902093909355505050565b6000818152600d602052604090205460ff16610b735760405162461bcd60e51b815260206004820152600c60248201526b1393d517d193d497d4d1531360a21b6044820152606401610693565b6000818152600d60209081526040808320805460ff19169055338352600a90915290205460ff16610bf957600b805460018181019092557f0175b7a638427703f0dbe7bb9bbf987a2551717b34e79f33b5b1008d1fa01db90180546001600160a01b031916339081179091556000908152600a60205260409020805460ff191690911790555b6000610c036112e7565b90506000670de0b6b3a7640000610c1a8334611e03565b610c249190611e30565b90506000610c3a670de0b6b3a764000083611e30565b6000858152600c60205260409020600301549091508111610ca95760405162461bcd60e51b815260206004820152602360248201527f4e6f7420656e6f756768207765692066726f6d207573646320636f6e7665727360448201526234b7b760e91b6064820152608401610693565b6040516000908190309034908381818185875af1925050503d8060008114610ced576040519150601f19603f3d011682016040523d82523d6000602084013e610cf2565b606091505b509150915081610d3b5760405162461bcd60e51b81526020600482015260146024820152732330b4b632b2103a379039b2b7321022ba3432b960611b6044820152606401610693565b60405186815233907f822cd8cda2d2b3feb2339ab2e79a3b336b792f0a912867901e963e928afd3be89060200160405180910390a2505050505050565b6009805460009182919082610d8c83611e44565b919050559050610d9c338261135a565b604080516080810182528781526020808201889052818301879052606082018690526000848152600c9091529190912081518190610dda9082611ea4565b5060208201516001820190610def9082611ea4565b5060408281015160028301556060909201516003909101556000828152600d602052819020805460ff191660011790555133907fe255251eed8f30a14a47cb9a84df853efd269d8c7f126beea3903a53af743cc190610e4f90899061195b565b60405180910390a295945050505050565b610e6b84848461066d565b6106f733858585856113bf565b6060610e8382611053565b506000610e9b60408051602081019091526000815290565b90506000815111610ebb5760405180602001604052806000815250610ee6565b80610ec5846114ea565b604051602001610ed6929190611f63565b6040516020818303038152906040525b9392505050565b600c60205260009081526040902080548190610f0890611d50565b80601f0160208091040260200160405190810160405280929190818152602001828054610f3490611d50565b8015610f815780601f10610f5657610100808354040283529160200191610f81565b820191906000526020600020905b815481529060010190602001808311610f6457829003601f168201915b505050505090806001018054610f9690611d50565b80601f0160208091040260200160405190810160405280929190818152602001828054610fc290611d50565b801561100f5780601f10610fe45761010080835404028352916020019161100f565b820191906000526020600020905b815481529060010190602001808311610ff257829003601f168201915b5050505050908060020154908060030154905084565b6001600160a01b03918216600090815260056020908152604080832093909416825291909152205460ff1690565b6000818152600260205260408120546001600160a01b03168061055f57604051637e27328960e01b815260048101849052602401610693565b610742838383600161157d565b6000828152600260205260408120546001600160a01b03908116908316156110c6576110c6818486611683565b6001600160a01b03811615611104576110e360008560008061157d565b6001600160a01b038116600090815260036020526040902080546000190190555b6001600160a01b03851615611133576001600160a01b0385166000908152600360205260409020805460010190555b60008481526002602052604080822080546001600160a01b0319166001600160a01b0389811691821790925591518793918516917fddf252ad1be2c89b69c2b068fc378daa952ba7f163c4a11628f55a4df523b3ef91a4949350505050565b67ffffffffffffffff83166000908152600f6020526040812054600b549091906111bc9084611f92565b90506111f030600b83815481106111d5576111d5611fa6565b6000918252602090912001546001600160a01b0316846116e7565b81600b828154811061120457611204611fa6565b60009182526020822001546040516001600160a01b03909116917f5eb916b81b980e51b8a3c54e722221c5c0087598d96e13bd35b7549e6232c54091a35050505050565b6001600160a01b03821661127a57604051630b61174360e31b81526001600160a01b0383166004820152602401610693565b6001600160a01b03838116600081815260056020908152604080832094871680845294825291829020805460ff191686151590811790915591519182527f17307eab39ab6107e8899845ad3d59bd9653f200f220920489ca2b5937696c31910160405180910390a3505050565b600754604080516315f789a960e21b815290516000926001600160a01b0316916357de26a49160048083019260209291908290030181865afa158015611331573d6000803e3d6000fd5b505050506040513d601f19601f820116820180604052508101906113559190611fbc565b905090565b6001600160a01b03821661138457604051633250574960e11b815260006004820152602401610693565b600061139283836000611099565b90506001600160a01b03811615610742576040516339e3563760e11b815260006004820152602401610693565b6001600160a01b0383163b156114e357604051630a85bd0160e11b81526001600160a01b0384169063150b7a0290611401908890889087908790600401611fd5565b6020604051808303816000875af192505050801561143c575060408051601f3d908101601f1916820190925261143991810190612012565b60015b6114a5573d80801561146a576040519150601f19603f3d011682016040523d82523d6000602084013e61146f565b606091505b50805160000361149d57604051633250574960e11b81526001600160a01b0385166004820152602401610693565b805181602001fd5b6001600160e01b03198116630a85bd0160e11b146114e157604051633250574960e11b81526001600160a01b0385166004820152602401610693565b505b5050505050565b606060006114f783611797565b600101905060008167ffffffffffffffff811115611517576115176119c8565b6040519080825280601f01601f191660200182016040528015611541576020820181803683370190505b5090508181016020015b600019016f181899199a1a9b1b9c1cb0b131b232b360811b600a86061a8153600a850494508461154b57509392505050565b808061159157506001600160a01b03821615155b156116535760006115a184611053565b90506001600160a01b038316158015906115cd5750826001600160a01b0316816001600160a01b031614155b80156115e057506115de8184611025565b155b156116095760405163a9fbf51f60e01b81526001600160a01b0384166004820152602401610693565b81156116515783856001600160a01b0316826001600160a01b03167f8c5be1e5ebec7d5bd14f71427d1e84f3dd0314c0f7b2291e5b200ac8c7c3b92560405160405180910390a45b505b5050600090815260046020526040902080546001600160a01b0319166001600160a01b0392909216919091179055565b61168e83838361186f565b610742576001600160a01b0383166116bc57604051637e27328960e01b815260048101829052602401610693565b60405163177e802f60e01b81526001600160a01b038316600482015260248101829052604401610693565b6001600160a01b03821661171157604051633250574960e11b815260006004820152602401610693565b600061171f83836000611099565b90506001600160a01b03811661174b57604051637e27328960e01b815260048101839052602401610693565b836001600160a01b0316816001600160a01b0316146106f7576040516364283d7b60e01b81526001600160a01b0380861660048301526024820184905282166044820152606401610693565b60008072184f03e93ff9f4daa797ed6e38ed64bf6a1f0160401b83106117d65772184f03e93ff9f4daa797ed6e38ed64bf6a1f0160401b830492506040015b6d04ee2d6d415b85acef81000000008310611802576d04ee2d6d415b85acef8100000000830492506020015b662386f26fc10000831061182057662386f26fc10000830492506010015b6305f5e1008310611838576305f5e100830492506008015b612710831061184c57612710830492506004015b6064831061185e576064830492506002015b600a831061055f5760010192915050565b60006001600160a01b038316158015906118cd5750826001600160a01b0316846001600160a01b031614806118a957506118a98484611025565b806118cd57506000828152600460205260409020546001600160a01b038481169116145b949350505050565b6001600160e01b0319811681146118eb57600080fd5b50565b60006020828403121561190057600080fd5b8135610ee6816118d5565b60005b8381101561192657818101518382015260200161190e565b50506000910152565b6000815180845261194781602086016020860161190b565b601f01601f19169290920160200192915050565b602081526000610ee6602083018461192f565b60006020828403121561198057600080fd5b5035919050565b6001600160a01b03811681146118eb57600080fd5b600080604083850312156119af57600080fd5b82356119ba81611987565b946020939093013593505050565b634e487b7160e01b600052604160045260246000fd5b60008067ffffffffffffffff8411156119f9576119f96119c8565b50604051601f19601f85018116603f0116810181811067ffffffffffffffff82111715611a2857611a286119c8565b604052838152905080828401851015611a4057600080fd5b83836020830137600060208583010152509392505050565b600082601f830112611a6957600080fd5b610ee6838335602085016119de565b600080600080600060a08688031215611a9057600080fd5b853567ffffffffffffffff811115611aa757600080fd5b611ab388828901611a58565b955050602086013567ffffffffffffffff811115611ad057600080fd5b611adc88828901611a58565b959895975050505060408401359360608101359360809091013592509050565b600080600060608486031215611b1157600080fd5b8335611b1c81611987565b92506020840135611b2c81611987565b929592945050506040919091013590565b600060208284031215611b4f57600080fd5b8135610ee681611987565b67ffffffffffffffff811681146118eb57600080fd5b600080600060608486031215611b8557600080fd5b8335611b1c81611b5a565b60008060408385031215611ba357600080fd5b8235611bae81611987565b915060208301358015158114611bc357600080fd5b809150509250929050565b60008060408385031215611be157600080fd5b50508035926020909101359150565b60008060008060808587031215611c0657600080fd5b843567ffffffffffffffff811115611c1d57600080fd5b611c2987828801611a58565b945050602085013567ffffffffffffffff811115611c4657600080fd5b611c5287828801611a58565b949794965050505060408301359260600135919050565b60008060008060808587031215611c7f57600080fd5b8435611c8a81611987565b93506020850135611c9a81611987565b925060408501359150606085013567ffffffffffffffff811115611cbd57600080fd5b8501601f81018713611cce57600080fd5b611cdd878235602084016119de565b91505092959194509250565b608081526000611cfc608083018761192f565b8281036020840152611d0e818761192f565b604084019590955250506060015292915050565b60008060408385031215611d3557600080fd5b8235611d4081611987565b91506020830135611bc381611987565b600181811c90821680611d6457607f821691505b602082108103611d8457634e487b7160e01b600052602260045260246000fd5b50919050565b600060208284031215611d9c57600080fd5b8151610ee681611987565b600060208284031215611db957600080fd5b81516001600160801b0381168114610ee657600080fd5b600060208284031215611de257600080fd5b8151610ee681611b5a565b634e487b7160e01b600052601160045260246000fd5b808202811582820484141761055f5761055f611ded565b634e487b7160e01b600052601260045260246000fd5b600082611e3f57611e3f611e1a565b500490565b600060018201611e5657611e56611ded565b5060010190565b601f82111561074257806000526020600020601f840160051c81016020851015611e845750805b601f840160051c820191505b818110156114e35760008155600101611e90565b815167ffffffffffffffff811115611ebe57611ebe6119c8565b611ed281611ecc8454611d50565b84611e5d565b6020601f821160018114611f065760008315611eee5750848201515b600019600385901b1c1916600184901b1784556114e3565b600084815260208120601f198516915b82811015611f365787850151825560209485019460019092019101611f16565b5084821015611f545786840151600019600387901b60f8161c191681555b50505050600190811b01905550565b60008351611f7581846020880161190b565b835190830190611f8981836020880161190b565b01949350505050565b600082611fa157611fa1611e1a565b500690565b634e487b7160e01b600052603260045260246000fd5b600060208284031215611fce57600080fd5b5051919050565b6001600160a01b03858116825284166020820152604081018390526080606082018190526000906120089083018461192f565b9695505050505050565b60006020828403121561202457600080fd5b8151610ee6816118d556fea26469706673582212203888d93d3415a0a96a33d3fdc3eda0cac076b042a7e2527c79c9464dfc6bd66264736f6c634300081a0033",
        "linkReferences": {}
    },
    "methodIdentifiers": {
        "_entropyCallback(uint64,address,bytes32)": "52a5f1f8",
        "addBottle(string,string,uint256,uint256)": "b416ca64",
        "alreadyBuy(address)": "2593711a",
        "approve(address,uint256)": "095ea7b3",
        "balanceOf(address)": "70a08231",
        "bottleData(uint256)": "d709b0e9",
        "buyBottle(uint256)": "b314fac2",
        "contestTimeStamp(uint256)": "267a97df",
        "createContest(string,string,uint256,uint256,uint256)": "10dd371c",
        "endContest(uint256,bytes32)": "a40c88e7",
        "entropy()": "47ce07cc",
        "forSell(uint256)": "f95a408a",
        "getApproved(uint256)": "081812fc",
        "isApprovedForAll(address,address)": "e985e9c5",
        "listOfUserAddresses(uint256)": "280612d6",
        "name()": "06fdde03",
        "nextTokenId()": "75794a3c",
        "ownerOf(uint256)": "6352211e",
        "safeTransferFrom(address,address,uint256)": "42842e0e",
        "safeTransferFrom(address,address,uint256,bytes)": "b88d4fde",
        "selfKisser()": "32f929fc",
        "setApprovalForAll(address,bool)": "a22cb465",
        "supportsInterface(bytes4)": "01ffc9a7",
        "symbol()": "95d89b41",
        "tokenURI(uint256)": "c87b56dd",
        "transferFrom(address,address,uint256)": "23b872dd"
    },
    "id": 39
}